{
  "_format": "hh-sol-artifact-1",
  "contractName": "Organization",
  "sourceName": "contracts/Organization.sol",
  "abi": [
    {
      "inputs": [
        {
          "internalType": "address",
          "name": "tokenAddress",
          "type": "address"
        }
      ],
      "stateMutability": "nonpayable",
      "type": "constructor"
    },
    {
      "inputs": [
        {
          "internalType": "address",
          "name": "owner",
          "type": "address"
        }
      ],
      "name": "OwnableInvalidOwner",
      "type": "error"
    },
    {
      "inputs": [
        {
          "internalType": "address",
          "name": "account",
          "type": "address"
        }
      ],
      "name": "OwnableUnauthorizedAccount",
      "type": "error"
    },
    {
      "anonymous": false,
      "inputs": [
        {
          "indexed": true,
          "internalType": "address",
          "name": "previousOwner",
          "type": "address"
        },
        {
          "indexed": true,
          "internalType": "address",
          "name": "newOwner",
          "type": "address"
        }
      ],
      "name": "OwnershipTransferred",
      "type": "event"
    },
    {
      "inputs": [
        {
          "internalType": "uint256",
          "name": "serviceId",
          "type": "uint256"
        }
      ],
      "name": "activateService",
      "outputs": [],
      "stateMutability": "nonpayable",
      "type": "function"
    },
    {
      "inputs": [
        {
          "internalType": "uint256",
          "name": "taskId",
          "type": "uint256"
        }
      ],
      "name": "activateTask",
      "outputs": [],
      "stateMutability": "nonpayable",
      "type": "function"
    },
    {
      "inputs": [
        {
          "internalType": "uint256",
          "name": "taskId",
          "type": "uint256"
        }
      ],
      "name": "checkTaskCancelation",
      "outputs": [],
      "stateMutability": "nonpayable",
      "type": "function"
    },
    {
      "inputs": [
        {
          "internalType": "uint256",
          "name": "taskId",
          "type": "uint256"
        }
      ],
      "name": "completeTask",
      "outputs": [],
      "stateMutability": "nonpayable",
      "type": "function"
    },
    {
      "inputs": [
        {
          "internalType": "uint256",
          "name": "amount",
          "type": "uint256"
        }
      ],
      "name": "deposit",
      "outputs": [],
      "stateMutability": "nonpayable",
      "type": "function"
    },
    {
      "inputs": [
        {
          "internalType": "uint256",
          "name": "serviceId",
          "type": "uint256"
        }
      ],
      "name": "onServiceRegistered",
      "outputs": [],
      "stateMutability": "nonpayable",
      "type": "function"
    },
    {
      "inputs": [
        {
          "internalType": "uint256",
          "name": "taskId",
          "type": "uint256"
        }
      ],
      "name": "onTaskComplete",
      "outputs": [],
      "stateMutability": "nonpayable",
      "type": "function"
    },
    {
      "inputs": [
        {
          "internalType": "uint256",
          "name": "taskId",
          "type": "uint256"
        }
      ],
      "name": "onTaskRegistered",
      "outputs": [],
      "stateMutability": "nonpayable",
      "type": "function"
    },
    {
      "inputs": [],
      "name": "owner",
      "outputs": [
        {
          "internalType": "address",
          "name": "",
          "type": "address"
        }
      ],
      "stateMutability": "view",
      "type": "function"
    },
    {
      "inputs": [
        {
          "internalType": "string",
          "name": "name",
          "type": "string"
        },
        {
          "internalType": "string",
          "name": "description",
          "type": "string"
        },
        {
          "internalType": "string",
          "name": "category",
          "type": "string"
        },
        {
          "internalType": "string",
          "name": "serviceType",
          "type": "string"
        },
        {
          "internalType": "uint256",
          "name": "price",
          "type": "uint256"
        },
        {
          "internalType": "enum IServiceManager.ProviderType",
          "name": "providerType",
          "type": "uint8"
        }
      ],
      "name": "registerService",
      "outputs": [
        {
          "internalType": "uint256",
          "name": "",
          "type": "uint256"
        }
      ],
      "stateMutability": "nonpayable",
      "type": "function"
    },
    {
      "inputs": [
        {
          "internalType": "string",
          "name": "description",
          "type": "string"
        },
        {
          "internalType": "string",
          "name": "category",
          "type": "string"
        },
        {
          "internalType": "string",
          "name": "taskType",
          "type": "string"
        },
        {
          "internalType": "uint256",
          "name": "reward",
          "type": "uint256"
        }
      ],
      "name": "registerTask",
      "outputs": [
        {
          "internalType": "uint256",
          "name": "",
          "type": "uint256"
        }
      ],
      "stateMutability": "nonpayable",
      "type": "function"
    },
    {
      "inputs": [
        {
          "internalType": "uint256",
          "name": "serviceId",
          "type": "uint256"
        }
      ],
      "name": "removeService",
      "outputs": [],
      "stateMutability": "nonpayable",
      "type": "function"
    },
    {
      "inputs": [
        {
          "internalType": "uint256",
          "name": "taskId",
          "type": "uint256"
        }
      ],
      "name": "removeTask",
      "outputs": [],
      "stateMutability": "nonpayable",
      "type": "function"
    },
    {
      "inputs": [],
      "name": "renounceOwnership",
      "outputs": [],
      "stateMutability": "nonpayable",
      "type": "function"
    },
    {
      "inputs": [],
      "name": "serviceManager",
      "outputs": [
        {
          "internalType": "contract IServiceManager",
          "name": "",
          "type": "address"
        }
      ],
      "stateMutability": "view",
      "type": "function"
    },
    {
      "inputs": [
        {
          "internalType": "uint256",
          "name": "",
          "type": "uint256"
        }
      ],
      "name": "serviceToTask",
      "outputs": [
        {
          "internalType": "uint256",
          "name": "",
          "type": "uint256"
        }
      ],
      "stateMutability": "view",
      "type": "function"
    },
    {
      "inputs": [
        {
          "internalType": "address",
          "name": "_oracle",
          "type": "address"
        }
      ],
      "name": "setOracle",
      "outputs": [],
      "stateMutability": "nonpayable",
      "type": "function"
    },
    {
      "inputs": [
        {
          "internalType": "uint256",
          "name": "index",
          "type": "uint256"
        },
        {
          "internalType": "bool",
          "name": "isBusy",
          "type": "bool"
        }
      ],
      "name": "setServiceBusy",
      "outputs": [],
      "stateMutability": "nonpayable",
      "type": "function"
    },
    {
      "inputs": [
        {
          "internalType": "address",
          "name": "_serviceManager",
          "type": "address"
        }
      ],
      "name": "setServiceManager",
      "outputs": [],
      "stateMutability": "nonpayable",
      "type": "function"
    },
    {
      "inputs": [
        {
          "internalType": "address",
          "name": "_taskManager",
          "type": "address"
        }
      ],
      "name": "setTaskManager",
      "outputs": [],
      "stateMutability": "nonpayable",
      "type": "function"
    },
    {
      "inputs": [
        {
          "internalType": "uint256",
          "name": "taskId",
          "type": "uint256"
        },
        {
          "internalType": "string",
          "name": "proofURI",
          "type": "string"
        }
      ],
      "name": "submitProofAsExecutor",
      "outputs": [],
      "stateMutability": "nonpayable",
      "type": "function"
    },
    {
      "inputs": [],
      "name": "taskManager",
      "outputs": [
        {
          "internalType": "contract ITaskManager",
          "name": "",
          "type": "address"
        }
      ],
      "stateMutability": "view",
      "type": "function"
    },
    {
      "inputs": [
        {
          "internalType": "uint256",
          "name": "",
          "type": "uint256"
        }
      ],
      "name": "taskToService",
      "outputs": [
        {
          "internalType": "uint256",
          "name": "",
          "type": "uint256"
        }
      ],
      "stateMutability": "view",
      "type": "function"
    },
    {
      "inputs": [],
      "name": "token",
      "outputs": [
        {
          "internalType": "contract IECoin",
          "name": "",
          "type": "address"
        }
      ],
      "stateMutability": "view",
      "type": "function"
    },
    {
      "inputs": [
        {
          "internalType": "address",
          "name": "newOwner",
          "type": "address"
        }
      ],
      "name": "transferOwnership",
      "outputs": [],
      "stateMutability": "nonpayable",
      "type": "function"
    },
    {
      "inputs": [
        {
          "internalType": "uint256",
          "name": "taskId",
          "type": "uint256"
        }
      ],
      "name": "unassignTask",
      "outputs": [],
      "stateMutability": "nonpayable",
      "type": "function"
    }
  ],
  "bytecode": "0x60a0346100d557601f6119cd38819003918201601f19168301916001600160401b038311848410176100da578084926020946040528339810103126100d557516001600160a01b038116908190036100d55733156100bf5760008054336001600160a01b0319821681178355604051939290916001600160a01b0316907f8be0079c531659141344cd1fd0a4f28419497f9722a3daafe3b4186f6b6457e09080a36080526118dc90816100f1823960805181818161015001526104960152f35b631e4fbdf760e01b600052600060045260246000fd5b600080fd5b634e487b7160e01b600052604160045260246000fdfe6080604052600436101561001257600080fd5b6000803560e01c806302cb134e14610e7c5780630a1eea8614610d7557806323cf55c414610d435780632a59c89714610cde578063327d0a6014610c945780633998fdd314610c6b5780633f4a6a9c14610bd35780634082ca2614610ba9578063451ef6e4146109fa5780634aeb1fc814610993578063715018a6146109395780637adbf973146108c95780638da5cb5b146108a25780639b41bf23146108585780639b66b13914610771578063a45bb9ea146106ba578063a4bf38961461064a578063a50a640e14610621578063b6b55f251461045d578063c308411714610391578063d7846f8714610367578063e1e29558146102f7578063e6c2a66b146102d2578063ef46529a14610210578063f2fde38b146101825763fc0c546a1461013b57600080fd5b3461017f578060031936011261017f576040517f00000000000000000000000000000000000000000000000000000000000000006001600160a01b03168152602090f35b80fd5b503461017f57602036600319011261017f576004356001600160a01b0381169081900361020c576101b1611015565b80156101f85781546001600160a01b03198116821783556001600160a01b03167f8be0079c531659141344cd1fd0a4f28419497f9722a3daafe3b4186f6b6457e08380a380f35b631e4fbdf760e01b82526004829052602482fd5b5080fd5b503461017f57602036600319011261017f5760043561023a60018060a01b03600154163314610fc6565b80825260046020526040822054908252600460205281604081205580825260056020528160408120558160018060a01b0360025416803b1561020c5781809160446040518094819363bb58ac2560e01b83528860048401528160248401525af180156102c7576102b2575b506102af8261140d565b80f35b816102bc91610f6d565b61020c5781386102a5565b6040513d84823e3d90fd5b503461017f57602036600319011261017f576102ec611015565b6102af600435611755565b503461017f57602036600319011261017f57610311611015565b60015481906001600160a01b0316803b1561036457818091602460405180948193631c3c52ab60e31b835260043560048401525af180156102c7576103535750f35b8161035d91610f6d565b61017f5780f35b50fd5b503461017f57602036600319011261017f5760406020916004358152600483522054604051908152f35b503461017f57602036600319011261017f576004356103ae611015565b808252600460205260408220546104075760015482916001600160a01b0390911690813b1561040357829160248392604051948593849263c308411760e01b845260048401525af180156102c7576103535750f35b5050fd5b60405162461bcd60e51b815260206004820152602860248201527f5461736b2061737369676e65642120506c6561736520756e617373696e6720746044820152673432903a30b9b59760c11b6064820152608490fd5b503461017f57602036600319011261017f576040516323b872dd60e01b81523360048281019190915230602483015235604482018190527f00000000000000000000000000000000000000000000000000000000000000006001600160a01b03169160208160648187875af19081156106165784916105d8575b501561059357602090604460018060a01b036001541685604051958694859363095ea7b360e01b8552600485015260248401525af19081156102c7578291610559575b50156105235780f35b60405162461bcd60e51b815260206004820152600e60248201526d105c1c1c9bdd994819985a5b195960921b6044820152606490fd5b90506020813d60201161058b575b8161057460209383610f6d565b8101031261020c5761058590611008565b3861051a565b3d9150610567565b60405162461bcd60e51b815260206004820152601760248201527f4465706f736974207472616e73666572206661696c65640000000000000000006044820152606490fd5b90506020813d60201161060e575b816105f360209383610f6d565b8101031261060a5761060490611008565b386104d7565b8380fd5b3d91506105e6565b6040513d86823e3d90fd5b503461017f578060031936011261017f576001546040516001600160a01b039091168152602090f35b503461017f57604036600319011261017f578060243580151580910361036457610672611015565b6002546001600160a01b031690813b1561040357829160448392604051948593849263bb58ac2560e01b8452600435600485015260248401525af180156102c7576103535750f35b503461017f57602036600319011261017f576004356106d7611015565b8082526005602052604082205461072c5760025482916001600160a01b0390911690813b1561040357829160248392604051948593849263522ddcf560e11b845260048401525af180156102c7576103535750f35b60405162461bcd60e51b815260206004820152601a60248201527f5365727669636520697320616c726561647920616374697665210000000000006044820152606490fd5b503461017f57602036600319011261017f5760043561078e611015565b808252600560205260408220546107e35760025482916001600160a01b0390911690813b15610403578291602483926040519485938492639b66b13960e01b845260048401525af180156102c7576103535750f35b60405162461bcd60e51b815260206004820152604160248201527f5365727669636520627573792120506c6561736520756e617373696e6720746860448201527f65207461736b2061736f63696174656420746f207468697320736572766963656064820152601760f91b608482015260a490fd5b503461017f57602036600319011261017f576004356001600160a01b0381169081900361020c57610887611015565b6bffffffffffffffffffffffff60a01b600254161760025580f35b503461017f578060031936011261017f57546040516001600160a01b039091168152602090f35b503461017f57602036600319011261017f57806004356001600160a01b03811690819003610364576108f9611015565b6001546001600160a01b031690813b15610403578291602483926040519485938492637adbf97360e01b845260048401525af180156102c7576103535750f35b503461017f578060031936011261017f57610952611015565b80546001600160a01b03198116825581906001600160a01b03167f8be0079c531659141344cd1fd0a4f28419497f9722a3daafe3b4186f6b6457e08280a380f35b503461017f57602036600319011261017f576001546001600160a01b031633036109c2576102af600435611755565b60405162461bcd60e51b815260206004820152601060248201526f27b7363c902a30b9b5a6b0b730b3b2b960811b6044820152606490fd5b503461017f5760c036600319011261017f5760043567ffffffffffffffff811161020c57610a2c903690600401610f3f565b60249291923567ffffffffffffffff8111610ba557610a4f903690600401610f3f565b93909160443567ffffffffffffffff8111610ba157610a72903690600401610f3f565b9060643567ffffffffffffffff8111610b9d57610a93903690600401610f3f565b909160a435936003851015610b9957610aaa611015565b600254604051631147bdb960e21b815260c060048201529a6001600160a01b03909116988b988998919291610ae49160c48b019190610fa5565b906003198983030160248a0152610afa92610fa5565b90600319878303016044880152610b1092610fa5565b90600319858303016064860152610b2692610fa5565b90608435608484015260a48301520381845a94602095f1908115610b8d5790610b55575b602090604051908152f35b506020813d602011610b85575b81610b6f60209383610f6d565b81010312610b805760209051610b4a565b600080fd5b3d9150610b62565b604051903d90823e3d90fd5b8880fd5b8680fd5b8480fd5b8280fd5b503461017f57602036600319011261017f5760406020916004358152600583522054604051908152f35b503461017f57604036600319011261017f578060243567ffffffffffffffff811161036457610c06903690600401610f3f565b610c0e611015565b6001546001600160a01b031691823b15610c6657610c55928492836040518096819582946302af005160e41b84526004356004850152604060248501526044840191610fa5565b03925af180156102c7576103535750f35b505050fd5b503461017f578060031936011261017f576002546040516001600160a01b039091168152602090f35b503461017f57602036600319011261017f576004356001600160a01b0381169081900361020c57610cc3611015565b6bffffffffffffffffffffffff60a01b600154161760015580f35b503461017f57602036600319011261017f576002546001600160a01b03163303610d0d576102af60043561140d565b60405162461bcd60e51b815260206004820152600e60248201526d139bdd08185d5d1a1bdc9a5e995960921b6044820152606490fd5b503461017f57602036600319011261017f57610d6a60018060a01b03600154163314610fc6565b6102af6004356110bc565b503461017f57608036600319011261017f5760043567ffffffffffffffff811161020c57610da7903690600401610f3f565b60249291923567ffffffffffffffff8111610ba557610dca903690600401610f3f565b93909160443567ffffffffffffffff8111610ba157918460209492610e59610df9610e35963690600401610f3f565b610e01611015565b610e4760018060a01b0360015416976040519c8d9a8b998a9863050f754360e11b8a52608060048b015260848a0191610fa5565b87810360031901602489015291610fa5565b84810360031901604486015291610fa5565b606435606483015203925af1908115610b8d5790610b5557602090604051908152f35b503461017f57602036600319011261017f57600435610e99611015565b80825260046020526040822054610f095760015482916001600160a01b0390911690813b1561040357829160248392604051958693849263016589a760e11b845260048401525af18015610efc57610eee5780f35b610ef791610f6d565b388180f35b50604051903d90823e3d90fd5b60405162461bcd60e51b815260206004820152600e60248201526d5461736b2061737369676e65642160901b6044820152606490fd5b9181601f84011215610b805782359167ffffffffffffffff8311610b805760208381860195010111610b8057565b90601f8019910116810190811067ffffffffffffffff821117610f8f57604052565b634e487b7160e01b600052604160045260246000fd5b908060209392818452848401376000828201840152601f01601f1916010190565b15610fcd57565b60405162461bcd60e51b81526020600482015260136024820152722ab730baba3437b934bd32b21031b0b63632b960691b6044820152606490fd5b51908115158203610b8057565b6000546001600160a01b0316330361102957565b63118cdaa760e01b6000523360045260246000fd5b908160a0910312610b8057805191602082015191604081015191608061106660608401611008565b92015190565b908160e0910312610b8057805191602082015191604081015191606082015191608081015160018060a01b0381168103610b8057916110b960c06110b260a08501611008565b9301611008565b90565b60015460405163fcc25e4960e01b8152600481018390529160009160a090849060249082906001600160a01b03165afa9081156102c757828394849085946113d3575b501561116257600254604051631b39202760e11b81526001600160a01b0390911695906020816004818a5afa9081156113c8578691611392575b508592600019958798885b848110611251575050506001600160a01b0384169250611169915050575b5050505050565b8184526004602052846040852055848452600560205281604085205560018060a01b036001541691823b15610ba157604051635a3889f360e11b815260048101919091526001600160a01b03919091166024820152604481019290925282908290606490829084905af180156102c757611241575b509060018060a01b036002541690813b15610ba557829160448392604051948593849263bb58ac2560e01b84526004840152600160248401525af180156102c75761122c575b808080611162565b611237828092610f6d565b61017f5780611224565b8161124b91610f6d565b386111de565b6001810180821161137e5760405190631c8bb35b60e21b8252600482015260e081602481865afa801561137357908b91829189848986918795888096819261132c575b508089604092526005602052205461131b5785611312575b5084611308575b5050826112fe575b5050806112f4575b806112eb575b6112db575b5050506001905b01611144565b909c5099509650600138806112ce565b508b81106112c9565b50858111156112c3565b14905089386112bb565b14925089386112b3565b159450386112ac565b5050505050505050506001906112d5565b94509750505095506040935061135a91925060e03d811161136c575b6113528183610f6d565b81019061106c565b91999598929790969593949290611294565b503d611348565b6040513d8d823e3d90fd5b634e487b7160e01b8b52601160045260248bfd5b90506020813d6020116113c0575b816113ad60209383610f6d565b810103126113bc575138611139565b8580fd5b3d91506113a0565b6040513d88823e3d90fd5b92955050506113fa915060a03d60a011611406575b6113f28183610f6d565b81019061103e565b935094919094386110ff565b503d6113e8565b600254604051631c8bb35b60e21b81526004810183905260009160e090829060249082906001600160a01b03165afa9081156102c7578290839184928594869387908892611727575b501590811561171f575b5061171657600154604051633c93b90560e01b815294906001600160a01b0316602086600481845afa95861561170b5788966116d3575b509487958893899160035494851515935b8581106115ab57505050505050506114c3575b505050505050565b82855260046020528060408620558452600560205281604085205560018060a01b036001541691823b15610ba157604051635a3889f360e11b815260048101919091526001600160a01b03919091166024820152604481019290925282908290606490829084905af180156102c75761159b575b509060018060a01b036002541690813b15610ba557829160448392604051948593849263bb58ac2560e01b84526004840152600160248401525af180156102c757611586575b808080806114bb565b611591828092610f6d565b61017f578061157d565b816115a591610f6d565b38611537565b600181018082116116bf576040519063fcc25e4960e01b8252600482015260a081602481875afa9081156116b257908e91848388818280958197611680575b5080886040925260046020522054611668578b80611677575b611668578461165e575b505082611654575b50508061164a575b80611641575b611634575b50506001905b016114a8565b909b509750600138611628565b50898111611623565b508d81101561161d565b1490508438611615565b149250883861160d565b5050505050505060019061162e565b508d8714611603565b929550955050604095506116a2915060a03d8111611406576113f28183610f6d565b95929790939791939596906115ea565b8e604051903d90823e3d90fd5b634e487b7160e01b8e52601160045260248efd5b9095506020813d602011611703575b816116ef60209383610f6d565b810103126116ff57519438611497565b8780fd5b3d91506116e2565b6040513d8a823e3d90fd5b50505050505050565b905038611460565b95505050505050611747915060e03d60e01161136c576113528183610f6d565b929593949193929038611456565b6000908082526004602052604082205490818352600560205280604084205403611853576001546001600160a01b0316803b1561060a578380916024604051809481936301a9249d60e01b83528760048401525af180156106165761183f575b506002546001600160a01b0316803b1561060a5783809160446040518094819363bb58ac2560e01b83528860048401528160248401525af180156106165790849161182a575b5090806118259392526004602052836040812055818452600560205283604081205560035561140d565b600355565b8161183491610f6d565b610ba55782386117fb565b8361184c91949294610f6d565b91386117b5565b60405162461bcd60e51b815260206004820152602560248201527f5461736b206e6f742061737369676e65642c20706c656173652072656d6f7665604482015264207461736b60d81b6064820152608490fdfea2646970667358221220f2f2fc8cf55cb1d733dbb08ec9e6679ebeb23206272d12ad3da3aa6a24a57fe964736f6c634300081c0033",
  "linkReferences": {},
  "deployedLinkReferences": {}
}