{
  "_format": "hh-sol-artifact-1",
  "contractName": "TaskManager",
  "sourceName": "contracts/before-refactor/TaskManager.sol",
  "abi": [
    {
      "inputs": [
        {
          "internalType": "address",
          "name": "tokenAddress",
          "type": "address"
        },
        {
          "internalType": "address",
          "name": "organizationAddress",
          "type": "address"
        }
      ],
      "stateMutability": "nonpayable",
      "type": "constructor"
    },
    {
      "anonymous": false,
      "inputs": [
        {
          "indexed": false,
          "internalType": "uint256",
          "name": "taskId",
          "type": "uint256"
        },
        {
          "indexed": true,
          "internalType": "address",
          "name": "creator",
          "type": "address"
        }
      ],
      "name": "TaskRegistered",
      "type": "event"
    },
    {
      "anonymous": false,
      "inputs": [
        {
          "indexed": false,
          "internalType": "uint256",
          "name": "taskId",
          "type": "uint256"
        }
      ],
      "name": "TaskRemoved",
      "type": "event"
    },
    {
      "anonymous": false,
      "inputs": [
        {
          "indexed": false,
          "internalType": "uint256",
          "name": "taskId",
          "type": "uint256"
        },
        {
          "indexed": false,
          "internalType": "address",
          "name": "executor",
          "type": "address"
        },
        {
          "indexed": false,
          "internalType": "uint256",
          "name": "reward",
          "type": "uint256"
        }
      ],
      "name": "TaskRewardPaid",
      "type": "event"
    },
    {
      "anonymous": false,
      "inputs": [
        {
          "indexed": true,
          "internalType": "uint256",
          "name": "taskId",
          "type": "uint256"
        }
      ],
      "name": "TaskUnassigned",
      "type": "event"
    },
    {
      "inputs": [
        {
          "internalType": "uint256",
          "name": "taskId",
          "type": "uint256"
        },
        {
          "internalType": "address",
          "name": "executor",
          "type": "address"
        },
        {
          "internalType": "uint256",
          "name": "reward",
          "type": "uint256"
        }
      ],
      "name": "assignTaskExecutor",
      "outputs": [],
      "stateMutability": "nonpayable",
      "type": "function"
    },
    {
      "inputs": [
        {
          "internalType": "uint256",
          "name": "taskId",
          "type": "uint256"
        }
      ],
      "name": "completeTask",
      "outputs": [],
      "stateMutability": "nonpayable",
      "type": "function"
    },
    {
      "inputs": [
        {
          "internalType": "address",
          "name": "",
          "type": "address"
        },
        {
          "internalType": "uint256",
          "name": "",
          "type": "uint256"
        }
      ],
      "name": "creatorToTaskIds",
      "outputs": [
        {
          "internalType": "uint256",
          "name": "",
          "type": "uint256"
        }
      ],
      "stateMutability": "view",
      "type": "function"
    },
    {
      "inputs": [],
      "name": "getAllTasks",
      "outputs": [
        {
          "components": [
            {
              "internalType": "uint256",
              "name": "id",
              "type": "uint256"
            },
            {
              "internalType": "string",
              "name": "description",
              "type": "string"
            },
            {
              "internalType": "bytes32",
              "name": "categoryHash",
              "type": "bytes32"
            },
            {
              "internalType": "bytes32",
              "name": "taskTypeHash",
              "type": "bytes32"
            },
            {
              "internalType": "address",
              "name": "creator",
              "type": "address"
            },
            {
              "internalType": "uint256",
              "name": "reward",
              "type": "uint256"
            },
            {
              "internalType": "enum TaskStatus",
              "name": "status",
              "type": "uint8"
            },
            {
              "internalType": "address",
              "name": "executor",
              "type": "address"
            },
            {
              "internalType": "bool",
              "name": "active",
              "type": "bool"
            }
          ],
          "internalType": "struct TaskManager.Task[]",
          "name": "",
          "type": "tuple[]"
        }
      ],
      "stateMutability": "view",
      "type": "function"
    },
    {
      "inputs": [
        {
          "internalType": "uint256",
          "name": "taskId",
          "type": "uint256"
        }
      ],
      "name": "getTask",
      "outputs": [
        {
          "components": [
            {
              "internalType": "uint256",
              "name": "id",
              "type": "uint256"
            },
            {
              "internalType": "string",
              "name": "description",
              "type": "string"
            },
            {
              "internalType": "bytes32",
              "name": "categoryHash",
              "type": "bytes32"
            },
            {
              "internalType": "bytes32",
              "name": "taskTypeHash",
              "type": "bytes32"
            },
            {
              "internalType": "address",
              "name": "creator",
              "type": "address"
            },
            {
              "internalType": "uint256",
              "name": "reward",
              "type": "uint256"
            },
            {
              "internalType": "enum TaskStatus",
              "name": "status",
              "type": "uint8"
            },
            {
              "internalType": "address",
              "name": "executor",
              "type": "address"
            },
            {
              "internalType": "bool",
              "name": "active",
              "type": "bool"
            }
          ],
          "internalType": "struct TaskManager.Task",
          "name": "",
          "type": "tuple"
        }
      ],
      "stateMutability": "view",
      "type": "function"
    },
    {
      "inputs": [
        {
          "internalType": "uint256",
          "name": "taskId",
          "type": "uint256"
        }
      ],
      "name": "getTaskMeta",
      "outputs": [
        {
          "internalType": "bytes32",
          "name": "categoryHash",
          "type": "bytes32"
        },
        {
          "internalType": "bytes32",
          "name": "taskTypeHash",
          "type": "bytes32"
        },
        {
          "internalType": "bool",
          "name": "active",
          "type": "bool"
        },
        {
          "internalType": "uint256",
          "name": "reward",
          "type": "uint256"
        }
      ],
      "stateMutability": "view",
      "type": "function"
    },
    {
      "inputs": [
        {
          "internalType": "address",
          "name": "creator",
          "type": "address"
        }
      ],
      "name": "getTasksByCreator",
      "outputs": [
        {
          "internalType": "uint256[]",
          "name": "",
          "type": "uint256[]"
        }
      ],
      "stateMutability": "view",
      "type": "function"
    },
    {
      "inputs": [],
      "name": "getTotalTasks",
      "outputs": [
        {
          "internalType": "uint256",
          "name": "",
          "type": "uint256"
        }
      ],
      "stateMutability": "view",
      "type": "function"
    },
    {
      "inputs": [],
      "name": "nextTaskId",
      "outputs": [
        {
          "internalType": "uint256",
          "name": "",
          "type": "uint256"
        }
      ],
      "stateMutability": "view",
      "type": "function"
    },
    {
      "inputs": [],
      "name": "organization",
      "outputs": [
        {
          "internalType": "contract IOrganization",
          "name": "",
          "type": "address"
        }
      ],
      "stateMutability": "view",
      "type": "function"
    },
    {
      "inputs": [
        {
          "internalType": "string",
          "name": "description",
          "type": "string"
        },
        {
          "internalType": "string",
          "name": "category",
          "type": "string"
        },
        {
          "internalType": "string",
          "name": "taskType",
          "type": "string"
        },
        {
          "internalType": "uint256",
          "name": "reward",
          "type": "uint256"
        },
        {
          "internalType": "address",
          "name": "creator",
          "type": "address"
        }
      ],
      "name": "registerTask",
      "outputs": [
        {
          "internalType": "uint256",
          "name": "",
          "type": "uint256"
        }
      ],
      "stateMutability": "nonpayable",
      "type": "function"
    },
    {
      "inputs": [
        {
          "internalType": "uint256",
          "name": "taskId",
          "type": "uint256"
        }
      ],
      "name": "removeTask",
      "outputs": [],
      "stateMutability": "nonpayable",
      "type": "function"
    },
    {
      "inputs": [
        {
          "internalType": "uint256",
          "name": "",
          "type": "uint256"
        }
      ],
      "name": "tasks",
      "outputs": [
        {
          "internalType": "uint256",
          "name": "id",
          "type": "uint256"
        },
        {
          "internalType": "string",
          "name": "description",
          "type": "string"
        },
        {
          "internalType": "bytes32",
          "name": "categoryHash",
          "type": "bytes32"
        },
        {
          "internalType": "bytes32",
          "name": "taskTypeHash",
          "type": "bytes32"
        },
        {
          "internalType": "address",
          "name": "creator",
          "type": "address"
        },
        {
          "internalType": "uint256",
          "name": "reward",
          "type": "uint256"
        },
        {
          "internalType": "enum TaskStatus",
          "name": "status",
          "type": "uint8"
        },
        {
          "internalType": "address",
          "name": "executor",
          "type": "address"
        },
        {
          "internalType": "bool",
          "name": "active",
          "type": "bool"
        }
      ],
      "stateMutability": "view",
      "type": "function"
    },
    {
      "inputs": [],
      "name": "token",
      "outputs": [
        {
          "internalType": "contract IECoin",
          "name": "",
          "type": "address"
        }
      ],
      "stateMutability": "view",
      "type": "function"
    },
    {
      "inputs": [
        {
          "internalType": "uint256",
          "name": "taskId",
          "type": "uint256"
        }
      ],
      "name": "unassignTask",
      "outputs": [],
      "stateMutability": "nonpayable",
      "type": "function"
    }
  ],
  "bytecode": "0x608034608657601f61169f38819003918201601f19168301916001600160401b03831184841017608b578084926040948552833981010312608657604b602060458360a1565b920160a1565b600380546001600160a01b039384166001600160a01b031991821617909155600480549290931691161790556040516115ea90816100b58239f35b600080fd5b634e487b7160e01b600052604160045260246000fd5b51906001600160a01b038216820360865756fe6080604052600436101561001257600080fd5b6000803560e01c80631d045347146111005780631d65e77e1461107157806323bd4d7a1461104857806331a4013114610f935780633c93b90514610f75578063779900b414610e715780638d97767214610dae578063b47113e614610acb578063c30841171461097c578063e1e2955814610787578063e6c2a66b146105d3578063f26bc10e14610160578063fc0c546a14610137578063fcc25e49146100e15763fdc3d8d7146100c257600080fd5b346100de57806003193601126100de5760209054604051908152f35b80fd5b50346100de5760203660031901126100de576080610100600435611288565b50600281015490600381015490600560ff600683015460a81c16910154916040519384526020840152151560408301526060820152f35b50346100de57806003193601126100de576003546040516001600160a01b039091168152602090f35b50346100de5760a03660031901126100de5760043567ffffffffffffffff81116105cf576101929036906004016113da565b9160243567ffffffffffffffff81116105cf576101b39036906004016113da565b92909360443567ffffffffffffffff81116105cb576101d69036906004016113da565b95608435956001600160a01b03871687036105c757916101fe61020d9261022e94369161156d565b6020815191012097369161156d565b602081519101209284549260405193610225856112e1565b8452369161156d565b6020820190815260408201958652606082019283526080820160018060a01b038616815260a083019060643582528560c085015260e08401948686526001610100860152600154600160401b8110156105b3578060016102919201600155611288565b94909461059f57855185555198895167ffffffffffffffff811161058b576102bc60018701546112a7565b601f8111610543575b506020601f82116001146104d25781908a9b9c6006999a9b926104c7575b50508160011b916000199060031b1c19161760018601555b516002850155516003840155600483019060018060a01b039051166bffffffffffffffffffffffff60a01b825416179055516005820155019160c082015160038110156104b357835491516001600160a81b031990921660ff9091161760089190911b610100600160a81b03161782556101000151815460ff60a81b191690151560a81b60ff60a81b161790556001600160a01b0382168152600260205260408120815481549391600160401b85101561049f57846103c09160018697018155611172565b819291549060031b91821b91600019901b19161790558154907f1334d90f48e1181bbe6b394f83f4e9568638ae650507823309c69c03c95ec7ad60206040519284845260018060a01b031692a26004546001600160a01b031690813b1561049b5782916024839260405194859384926308f3d57160e21b845260048401525af180156104905761047b575b5054600019811461046757602091600182019055604051908152f35b634e487b7160e01b82526011600452602482fd5b8161048591611314565b6100de57803861044b565b6040513d84823e3d90fd5b5050fd5b634e487b7160e01b84526041600452602484fd5b634e487b7160e01b85526021600452602485fd5b0151905038806102e3565b600187018a52808a209b8a5b601f198416811061052b57509b82916006999a9b9c9d600194601f19811610610512575b505050811b0160018601556102fb565b015160001960f88460031b161c19169055388080610502565b828201518e556001909d019c602092830192016104de565b600187018a5260208a20601f830160051c81019160208410610581575b601f0160051c01905b81811061057657506102c5565b8a8155600101610569565b9091508190610560565b634e487b7160e01b89526041600452602489fd5b634e487b7160e01b88526004889052602488fd5b634e487b7160e01b88526041600452602488fd5b8580fd5b8380fd5b5080fd5b50346100de5760203660031901126100de57600435906105fe60018060a01b036004541633146114d8565b61060782611288565b506006810160ff8154166003811015610773579160209161062d6001610682951461152d565b80546001600160a81b031916905560035460048281015460059093015460405163a9059cbb60e01b81526001600160a01b03948516928101929092526024820152938492909116908290869082906044820190565b03925af1908115610490578291610744575b501561070f576004546001600160a01b0316803b156105cf5781809160246040518094819363c9ff25ef60e01b83528860048401525af18015610490576106ff575b50907f54709a83868e6db3fedda84ee00f1878ae0a5155ae687cdd5c7510245d1e23418280a280f35b8161070991611314565b386106d6565b60405162461bcd60e51b815260206004820152600d60248201526c1499599d5b990819985a5b1959609a1b6044820152606490fd5b610766915060203d60201161076c575b61075e8183611314565b810190611515565b38610694565b503d610754565b634e487b7160e01b84526021600452602484fd5b50346100de5760203660031901126100de576004356107a581611288565b50906006820190815460ff8160a81c16156109455733600882901c6001600160a01b03160361090a5760ff1660038110156104b35760016107e6911461152d565b8154600260ff60ff60a81b0119821681178455600354600595909501805460405163a9059cbb60e01b81526001600160a01b0360ff1990951690931760081c8416600484015260248301529490916020918391168188816044810103925af19081156108ff5785916108e0575b50156108a2577f43ffb40a32a7115783ba742e992e68f09259a8b053dd483151bf1d183179c7bd9260609260018060a01b03905460081c1690549060405192835260208301526040820152a180f35b60405162461bcd60e51b815260206004820152601660248201527514995dd85c99081d1c985b9cd9995c8819985a5b195960521b6044820152606490fd5b6108f9915060203d60201161076c5761075e8183611314565b38610853565b6040513d87823e3d90fd5b60405162461bcd60e51b81526020600482015260136024820152724e6f742061737369676e656420746f20796f7560681b6044820152606490fd5b60405162461bcd60e51b815260206004820152600f60248201526e5461736b206e6f742061637469766560881b6044820152606490fd5b50346100de5760203660031901126100de5760043561099e6001548210611408565b6109a781611288565b5060048101546001600160a01b03163303610a86576006019081549060ff8260a81c1615610a4f5760ff821660038110156104b357610a18577f36a2f40cfe61ace5baf26a6e4f86ffa75c62392fde263d354d42e0e718fa4bd19260209260ff60a81b19169055604051908152a180f35b60405162461bcd60e51b815260206004820152600f60248201526e15185cdac81a5cc8185cdcd9db9959608a1b6044820152606490fd5b60405162461bcd60e51b815260206004820152600f60248201526e105b1c9958591e481c995b5bdd9959608a1b6044820152606490fd5b60405162461bcd60e51b815260206004820152601c60248201527f4f6e6c792063726561746f722063616e2072656d6f7665207461736b000000006044820152606490fd5b50346100de5760603660031901126100de576024356001600160a01b03811681036105cf57604435610b0860018060a01b036004541633146114d8565b610b13600435611288565b5091600683019060ff8254166003811015610d9a57610d62578154600160089290921b610100600160a81b03166001600160a81b031990911617179055600582018190556003546004928301546040516370a0823160e01b81526001600160a01b039182169481018590529116929190602081602481875afa80156108ff5782918691610d2d575b5010610ce857604051636eb1769f60e11b815260048101839052306024820152602081604481875afa80156108ff5782918691610caf575b5010610c765760646020928560405195869485936323b872dd60e01b8552600485015230602485015260448401525af1908115610490578291610c57575b5015610c1a5780f35b60405162461bcd60e51b8152602060048201526015602482015274151bdad95b881d1c985b9cd9995c8819985a5b1959605a1b6044820152606490fd5b610c70915060203d60201161076c5761075e8183611314565b38610c11565b60405162461bcd60e51b8152602060048201526011602482015270416c6c6f77616e636520746f6f206c6f7760781b6044820152606490fd5b9150506020813d602011610ce0575b81610ccb60209383611314565b81010312610cdc5781905138610bd3565b8480fd5b3d9150610cbe565b60405162461bcd60e51b815260206004820152601a60248201527f496e73756666696369656e7420746f6b656e2062616c616e63650000000000006044820152606490fd5b9150506020813d602011610d5a575b81610d4960209383611314565b81010312610cdc5781905138610b9b565b3d9150610d3c565b60405162461bcd60e51b815260206004820152601060248201526f105b1c9958591e48185cdcda59db995960821b6044820152606490fd5b634e487b7160e01b86526021600452602486fd5b50346100de5760203660031901126100de576004356001548110156105cf57610dd690611288565b508054610de560018301611336565b9160ff60028201549160038101549060018060a01b036004820154166006600583015492015492610e2a604051988998895261012060208a01526101208901906111a0565b9560408801526060870152608086015260a0850152610e4e60c085018383166111e1565b600881901c6001600160a01b031660e085015260a81c1615156101008301520390f35b50346100de57806003193601126100de5760015467ffffffffffffffff8111610f6157604051610ea760208360051b0182611314565b818152600183526020810191837fb10e2d527612073b26eecdfd717e6a320cf44b4afac2b0732d9fcbe2b7fa0cf6845b838310610f4357868587604051928392602084019060208552518091526040840160408260051b8601019392905b828210610f1457505050500390f35b91936001919395506020610f338192603f198a82030186528851611204565b9601920192018594939192610f05565b60076020600192610f5385611446565b815201920192019190610ed7565b634e487b7160e01b82526041600452602482fd5b50346100de57806003193601126100de576020600154604051908152f35b50346100de5760203660031901126100de576001600160a01b03610fb5611157565b168152600260205260408120604051908160208254918281520190819285526020852090855b8181106110325750505082610ff1910383611314565b604051928392602084019060208552518091526040840192915b818110611019575050500390f35b825184528594506020938401939092019160010161100b565b8254845260209093019260019283019201610fdb565b50346100de57806003193601126100de576004546040516001600160a01b039091168152602090f35b50346100de5760203660031901126100de576110e86110e26110fc92600435906101006040516110a0816112e1565b828152606060208201528260408201528260608201528260808201528260a08201528260c08201528260e082015201526110dd6001548210611408565b611288565b50611446565b604051918291602083526020830190611204565b0390f35b50346100de5760403660031901126100de5761111a611157565b6001600160a01b03168152600260205260408120805460243592908310156100de5760206111488484611172565b90549060031b1c604051908152f35b600435906001600160a01b038216820361116d57565b600080fd5b805482101561118a5760005260206000200190600090565b634e487b7160e01b600052603260045260246000fd5b919082519283825260005b8481106111cc575050826000602080949584010152601f8019910116010190565b806020809284010151828286010152016111ab565b9060038210156111ee5752565b634e487b7160e01b600052602160045260246000fd5b908151815261010080611228602085015161012060208601526101208501906111a0565b93604081015160408501526060810151606085015260018060a01b03608082015116608085015260a081015160a085015261126b60c082015160c08601906111e1565b60e0818101516001600160a01b0316908501520151151591015290565b60015481101561118a5760016000526007602060002091020190600090565b90600182811c921680156112d7575b60208310146112c157565b634e487b7160e01b600052602260045260246000fd5b91607f16916112b6565b610120810190811067ffffffffffffffff8211176112fe57604052565b634e487b7160e01b600052604160045260246000fd5b90601f8019910116810190811067ffffffffffffffff8211176112fe57604052565b906040519182600082549261134a846112a7565b80845293600181169081156113b85750600114611371575b5061136f92500383611314565b565b90506000929192526020600020906000915b81831061139c57505090602061136f9282010138611362565b6020919350806001915483858901015201910190918492611383565b90506020925061136f94915060ff191682840152151560051b82010138611362565b9181601f8401121561116d5782359167ffffffffffffffff831161116d576020838186019501011161116d57565b1561140f57565b60405162461bcd60e51b815260206004820152600f60248201526e125b9d985b1a59081d185cdac81251608a1b6044820152606490fd5b90604051611453816112e1565b600681938054835261146760018201611336565b602084015260028101546040840152600380820154606085015260048201546001600160a01b03166080850152600582015460a08501529101549060ff8216908110156111ee5760c0830152600881901c6001600160a01b031660e083015260a81c60ff1615156101009190910152565b156114df57565b60405162461bcd60e51b815260206004820152600e60248201526d139bdd08185d5d1a1bdc9a5e995960921b6044820152606490fd5b9081602091031261116d5751801515810361116d5790565b1561153457565b60405162461bcd60e51b815260206004820152601160248201527015185cdac81b9bdd08185cdcda59db9959607a1b6044820152606490fd5b92919267ffffffffffffffff82116112fe5760405191611597601f8201601f191660200184611314565b82948184528183011161116d57828160209384600096013701015256fea2646970667358221220716c4b4e0d21c13ab8597cddd2e8f37a4cadcbfad25016e938e4f3ddfabf5dd964736f6c634300081c0033",
  "linkReferences": {},
  "deployedLinkReferences": {}
}