{
  "_format": "hh-sol-artifact-1",
  "contractName": "MockToken",
  "sourceName": "contracts/mocks/MockToken.sol",
  "abi": [
    {
      "inputs": [
        {
          "internalType": "address",
          "name": "",
          "type": "address"
        },
        {
          "internalType": "address",
          "name": "",
          "type": "address"
        }
      ],
      "name": "allowance",
      "outputs": [
        {
          "internalType": "uint256",
          "name": "",
          "type": "uint256"
        }
      ],
      "stateMutability": "view",
      "type": "function"
    },
    {
      "inputs": [
        {
          "internalType": "address",
          "name": "spender",
          "type": "address"
        },
        {
          "internalType": "uint256",
          "name": "amount",
          "type": "uint256"
        }
      ],
      "name": "approve",
      "outputs": [
        {
          "internalType": "bool",
          "name": "",
          "type": "bool"
        }
      ],
      "stateMutability": "nonpayable",
      "type": "function"
    },
    {
      "inputs": [
        {
          "internalType": "address",
          "name": "",
          "type": "address"
        }
      ],
      "name": "balanceOf",
      "outputs": [
        {
          "internalType": "uint256",
          "name": "",
          "type": "uint256"
        }
      ],
      "stateMutability": "view",
      "type": "function"
    },
    {
      "inputs": [
        {
          "internalType": "address",
          "name": "to",
          "type": "address"
        },
        {
          "internalType": "uint256",
          "name": "amount",
          "type": "uint256"
        }
      ],
      "name": "mint",
      "outputs": [],
      "stateMutability": "nonpayable",
      "type": "function"
    },
    {
      "inputs": [
        {
          "internalType": "address",
          "name": "from",
          "type": "address"
        },
        {
          "internalType": "address",
          "name": "to",
          "type": "address"
        },
        {
          "internalType": "uint256",
          "name": "amount",
          "type": "uint256"
        }
      ],
      "name": "transferFrom",
      "outputs": [
        {
          "internalType": "bool",
          "name": "",
          "type": "bool"
        }
      ],
      "stateMutability": "nonpayable",
      "type": "function"
    }
  ],
  "bytecode": "0x60808060405234601557610352908161001b8239f35b600080fdfe6080604052600436101561001257600080fd5b60003560e01c8063095ea7b31461027557806323b872dd1461012357806340c10f19146100e357806370a08231146100a95763dd62ed3e1461005357600080fd5b346100a45760403660031901126100a45761006c6102c0565b6100746102d6565b6001600160a01b039182166000908152600160209081526040808320949093168252928352819020549051908152f35b600080fd5b346100a45760203660031901126100a4576001600160a01b036100ca6102c0565b1660005260006020526020604060002054604051908152f35b346100a45760403660031901126100a4576001600160a01b036101046102c0565b166000526000602052604060002061011f602435825461030f565b9055005b346100a45760603660031901126100a45761013c6102c0565b6101446102d6565b6044359160018060a01b0316806000526000602052826040600020541061023957600081815260016020908152604080832033845290915290205483116101fb57806000526000602052604060002061019e8482546102ec565b90556000526001602052604060002060018060a01b03331660005260205260406000206101cc8382546102ec565b905560018060a01b031660005260006020526101ee604060002091825461030f565b9055602060405160018152f35b60405162461bcd60e51b8152602060048201526016602482015275696e73756666696369656e7420616c6c6f77616e636560501b6044820152606490fd5b60405162461bcd60e51b8152602060048201526014602482015273696e73756666696369656e742062616c616e636560601b6044820152606490fd5b346100a45760403660031901126100a45761028e6102c0565b33600052600160205260406000209060018060a01b031660005260205260406000206024359055602060405160018152f35b600435906001600160a01b03821682036100a457565b602435906001600160a01b03821682036100a457565b919082039182116102f957565b634e487b7160e01b600052601160045260246000fd5b919082018092116102f95756fea2646970667358221220cbf3de1b6a16225889807beca94a33843757f5a038f1d5b99ebe90bfa2a2584164736f6c634300081c0033",
  "linkReferences": {},
  "deployedLinkReferences": {}
}