{
  "_format": "hh-sol-artifact-1",
  "contractName": "ServiceManager",
  "sourceName": "contracts/ServiceManager.sol",
  "abi": [
    {
      "inputs": [
        {
          "internalType": "address",
          "name": "_organization",
          "type": "address"
        }
      ],
      "stateMutability": "nonpayable",
      "type": "constructor"
    },
    {
      "anonymous": false,
      "inputs": [
        {
          "indexed": true,
          "internalType": "uint256",
          "name": "serviceId",
          "type": "uint256"
        },
        {
          "indexed": false,
          "internalType": "bool",
          "name": "busy",
          "type": "bool"
        }
      ],
      "name": "ServiceBusyUpdated",
      "type": "event"
    },
    {
      "anonymous": false,
      "inputs": [
        {
          "indexed": true,
          "internalType": "uint256",
          "name": "serviceId",
          "type": "uint256"
        },
        {
          "indexed": true,
          "internalType": "address",
          "name": "creator",
          "type": "address"
        }
      ],
      "name": "ServiceRegistered",
      "type": "event"
    },
    {
      "anonymous": false,
      "inputs": [
        {
          "indexed": false,
          "internalType": "uint256",
          "name": "index",
          "type": "uint256"
        }
      ],
      "name": "ServiceRemoved",
      "type": "event"
    },
    {
      "inputs": [
        {
          "internalType": "uint256",
          "name": "index",
          "type": "uint256"
        }
      ],
      "name": "activateService",
      "outputs": [],
      "stateMutability": "nonpayable",
      "type": "function"
    },
    {
      "inputs": [
        {
          "internalType": "address",
          "name": "",
          "type": "address"
        },
        {
          "internalType": "uint256",
          "name": "",
          "type": "uint256"
        }
      ],
      "name": "creatorToServiceIds",
      "outputs": [
        {
          "internalType": "uint256",
          "name": "",
          "type": "uint256"
        }
      ],
      "stateMutability": "view",
      "type": "function"
    },
    {
      "inputs": [],
      "name": "getAllServices",
      "outputs": [
        {
          "components": [
            {
              "internalType": "uint256",
              "name": "id",
              "type": "uint256"
            },
            {
              "internalType": "string",
              "name": "name",
              "type": "string"
            },
            {
              "internalType": "string",
              "name": "description",
              "type": "string"
            },
            {
              "internalType": "string",
              "name": "serviceCategory",
              "type": "string"
            },
            {
              "internalType": "string",
              "name": "serviceType",
              "type": "string"
            },
            {
              "internalType": "bytes32",
              "name": "categoryHash",
              "type": "bytes32"
            },
            {
              "internalType": "bytes32",
              "name": "serviceTypeHash",
              "type": "bytes32"
            },
            {
              "internalType": "uint256",
              "name": "price",
              "type": "uint256"
            },
            {
              "internalType": "address",
              "name": "creator",
              "type": "address"
            },
            {
              "internalType": "bool",
              "name": "active",
              "type": "bool"
            },
            {
              "internalType": "enum ServiceManager.ProviderType",
              "name": "providerType",
              "type": "uint8"
            },
            {
              "internalType": "bool",
              "name": "busy",
              "type": "bool"
            }
          ],
          "internalType": "struct ServiceManager.Service[]",
          "name": "",
          "type": "tuple[]"
        }
      ],
      "stateMutability": "view",
      "type": "function"
    },
    {
      "inputs": [
        {
          "internalType": "uint256",
          "name": "index",
          "type": "uint256"
        }
      ],
      "name": "getService",
      "outputs": [
        {
          "components": [
            {
              "internalType": "uint256",
              "name": "id",
              "type": "uint256"
            },
            {
              "internalType": "string",
              "name": "name",
              "type": "string"
            },
            {
              "internalType": "string",
              "name": "description",
              "type": "string"
            },
            {
              "internalType": "string",
              "name": "serviceCategory",
              "type": "string"
            },
            {
              "internalType": "string",
              "name": "serviceType",
              "type": "string"
            },
            {
              "internalType": "bytes32",
              "name": "categoryHash",
              "type": "bytes32"
            },
            {
              "internalType": "bytes32",
              "name": "serviceTypeHash",
              "type": "bytes32"
            },
            {
              "internalType": "uint256",
              "name": "price",
              "type": "uint256"
            },
            {
              "internalType": "address",
              "name": "creator",
              "type": "address"
            },
            {
              "internalType": "bool",
              "name": "active",
              "type": "bool"
            },
            {
              "internalType": "enum ServiceManager.ProviderType",
              "name": "providerType",
              "type": "uint8"
            },
            {
              "internalType": "bool",
              "name": "busy",
              "type": "bool"
            }
          ],
          "internalType": "struct ServiceManager.Service",
          "name": "",
          "type": "tuple"
        }
      ],
      "stateMutability": "view",
      "type": "function"
    },
    {
      "inputs": [],
      "name": "getServiceCount",
      "outputs": [
        {
          "internalType": "uint256",
          "name": "",
          "type": "uint256"
        }
      ],
      "stateMutability": "view",
      "type": "function"
    },
    {
      "inputs": [
        {
          "internalType": "uint256",
          "name": "index",
          "type": "uint256"
        }
      ],
      "name": "getServiceMeta",
      "outputs": [
        {
          "internalType": "uint256",
          "name": "sid",
          "type": "uint256"
        },
        {
          "internalType": "bytes32",
          "name": "categoryHash",
          "type": "bytes32"
        },
        {
          "internalType": "bytes32",
          "name": "serviceTypeHash",
          "type": "bytes32"
        },
        {
          "internalType": "uint256",
          "name": "price",
          "type": "uint256"
        },
        {
          "internalType": "address",
          "name": "creator",
          "type": "address"
        },
        {
          "internalType": "bool",
          "name": "active",
          "type": "bool"
        },
        {
          "internalType": "bool",
          "name": "busy",
          "type": "bool"
        }
      ],
      "stateMutability": "view",
      "type": "function"
    },
    {
      "inputs": [
        {
          "internalType": "address",
          "name": "creator",
          "type": "address"
        }
      ],
      "name": "getServicesByCreator",
      "outputs": [
        {
          "internalType": "uint256[]",
          "name": "",
          "type": "uint256[]"
        }
      ],
      "stateMutability": "view",
      "type": "function"
    },
    {
      "inputs": [],
      "name": "organization",
      "outputs": [
        {
          "internalType": "contract IServiceRegistrationReceiver",
          "name": "",
          "type": "address"
        }
      ],
      "stateMutability": "view",
      "type": "function"
    },
    {
      "inputs": [],
      "name": "organizationAddress",
      "outputs": [
        {
          "internalType": "address",
          "name": "",
          "type": "address"
        }
      ],
      "stateMutability": "view",
      "type": "function"
    },
    {
      "inputs": [
        {
          "internalType": "string",
          "name": "name",
          "type": "string"
        },
        {
          "internalType": "string",
          "name": "description",
          "type": "string"
        },
        {
          "internalType": "string",
          "name": "category",
          "type": "string"
        },
        {
          "internalType": "string",
          "name": "serviceType",
          "type": "string"
        },
        {
          "internalType": "uint256",
          "name": "price",
          "type": "uint256"
        },
        {
          "internalType": "enum ServiceManager.ProviderType",
          "name": "providerType",
          "type": "uint8"
        }
      ],
      "name": "registerService",
      "outputs": [
        {
          "internalType": "uint256",
          "name": "",
          "type": "uint256"
        }
      ],
      "stateMutability": "nonpayable",
      "type": "function"
    },
    {
      "inputs": [
        {
          "internalType": "uint256",
          "name": "index",
          "type": "uint256"
        }
      ],
      "name": "removeService",
      "outputs": [],
      "stateMutability": "nonpayable",
      "type": "function"
    },
    {
      "inputs": [
        {
          "internalType": "uint256",
          "name": "",
          "type": "uint256"
        }
      ],
      "name": "services",
      "outputs": [
        {
          "internalType": "uint256",
          "name": "id",
          "type": "uint256"
        },
        {
          "internalType": "string",
          "name": "name",
          "type": "string"
        },
        {
          "internalType": "string",
          "name": "description",
          "type": "string"
        },
        {
          "internalType": "string",
          "name": "serviceCategory",
          "type": "string"
        },
        {
          "internalType": "string",
          "name": "serviceType",
          "type": "string"
        },
        {
          "internalType": "bytes32",
          "name": "categoryHash",
          "type": "bytes32"
        },
        {
          "internalType": "bytes32",
          "name": "serviceTypeHash",
          "type": "bytes32"
        },
        {
          "internalType": "uint256",
          "name": "price",
          "type": "uint256"
        },
        {
          "internalType": "address",
          "name": "creator",
          "type": "address"
        },
        {
          "internalType": "bool",
          "name": "active",
          "type": "bool"
        },
        {
          "internalType": "enum ServiceManager.ProviderType",
          "name": "providerType",
          "type": "uint8"
        },
        {
          "internalType": "bool",
          "name": "busy",
          "type": "bool"
        }
      ],
      "stateMutability": "view",
      "type": "function"
    },
    {
      "inputs": [
        {
          "internalType": "uint256",
          "name": "index",
          "type": "uint256"
        },
        {
          "internalType": "bool",
          "name": "isBusy",
          "type": "bool"
        }
      ],
      "name": "setBusy",
      "outputs": [],
      "stateMutability": "nonpayable",
      "type": "function"
    }
  ],
  "bytecode": "0x608034607d57601f6117c538819003918201601f19168301916001600160401b03831184841017608257808492602094604052833981010312607d57516001600160a01b03811690819003607d57600280546001600160a01b0319908116831790915560038054909116909117905560405161172c90816100998239f35b600080fd5b634e487b7160e01b600052604160045260246000fdfe608080604052600436101561001357600080fd5b600090813560e01c9081630db70368146112275750806321fe0f301461113a57806323bd4d7a146111115780633672404e146110f4578063451ef6e4146108ff578063530a0c941461084a578063722ecd6c146107a75780639b66b139146106205780639ffbcb27146105c9578063a45bb9ea146103ee578063bb58ac2514610252578063c22c4f431461013b5763ef0e239b146100b057600080fd5b3461013857602036600319011261013857600435906100cd61165e565b508115158061012d575b6100e0906116ba565b6000198201918211610119576101156101016100fb846113e8565b5061155f565b6040519182916020835260208301906112b0565b0390f35b634e487b7160e01b81526011600452602490fd5b5080548211156100d7565b80fd5b50346101385760203660031901126101385760043590805482101561013857610180610166836113e8565b5080549060ff610178600183016114af565b610184600284016114af565b92610191600382016114af565b936102026101a1600484016114af565b6101f46005850154976101e66006870154956101d8600860078a0154990154996040519e8f9e8f908152816020820152019061124c565b8c810360408e01529061124c565b908a820360608c015261124c565b9088820360808a015261124c565b9460a087015260c086015260e085015260018060a01b038116610100850152818160a01c1615156101208501526102426101408501838360a81c1661128d565b60b01c1615156101608301520390f35b503461013857604036600319011261013857600435602435801515908181036103ea57821515806103df575b610287906116ba565b60001983018381116103cb5761029e6008916113e8565b500191825460ff8160a01c1615610390576001600160a01b03163314801561037c575b1561031157825460ff60b01b191691151560b01b60ff60b01b16919091179091557f8709da30dfd54bd75b59fd33886fda09348096466d27d9d932066620ffa56b9990602090604051908152a280f35b60405162461bcd60e51b815260206004820152603f60248201527f4f6e6c7920736572766963652063726561746f7273206f72206f7267616e697a60448201527f6174696f6e2063616e20736574206120736572766963652061732062757379006064820152608490fd5b506003546001600160a01b031633146102c1565b60405162461bcd60e51b815260206004820152601360248201527253657276696365206e6f74206163746976652160681b6044820152606490fd5b634e487b7160e01b85526011600452602485fd5b50835483111561027e565b8380fd5b503461013857602036600319011261013857600435801515806105be575b610415906116ba565b60001981018181116105aa5761042c6008916113e8565b500180546001600160a01b038116330361055b5760ff8160a01c16158061054d575b156104fe5762ff00ff60a01b1916600160a01b17815560035483906001600160a01b0316803b156104fa57818091602460405180948193632a59c89760e01b83528960048401525af180156104ef576104d6575b5050546001600160a01b0316907ffcd335a152e711f7e0e74487e27043f438dc7e73d600889758eb946a0192c3e08380a380f35b816104e09161148e565b6104eb5782386104a2565b8280fd5b6040513d84823e3d90fd5b5080fd5b60405162461bcd60e51b815260206004820152602160248201527f416c726561647920616374697665206f722073657276696365206973206275736044820152607960f81b6064820152608490fd5b5060ff8160b01c161561044e565b60405162461bcd60e51b815260206004820152602160248201527f4f6e6c792063726561746f722063616e206163746976617465207365727669636044820152606560f81b6064820152608490fd5b634e487b7160e01b83526011600452602483fd5b50815481111561040c565b5034610138576040366003190112610138576105e36113a4565b6001600160a01b031681526001602052604081208054602435929083101561013857602061061184846113ba565b90549060031b1c604051908152f35b5034610138576020366003190112610138576004358015158061079c575b610647906116ba565b60001981018181116105aa5761065e6008916113e8565b5001805490916001600160a01b03821633036107575760ff8260a01c16156107205760ff8260b01c166106c5577f419a91c001167ea76233ed548fd1a02c21b5b63f8b6eaa7dd5747aac879148929260209262ff00ff60a01b19169055604051908152a180f35b60405162461bcd60e51b815260206004820152602d60248201527f43616e742072656d6f7665206275737920736572766963652e2046697273742060448201526c756e617373696e67207461736b60981b6064820152608490fd5b60405162461bcd60e51b815260206004820152600f60248201526e105b1c9958591e481c995b5bdd9959608a1b6044820152606490fd5b60405162461bcd60e51b815260206004820152601f60248201527f4f6e6c792063726561746f722063616e2072656d6f76652073657276696365006044820152606490fd5b50815481111561063e565b503461013857602036600319011261013857600435908115158061083f575b6107cf906116ba565b60001982019182116101195760e06107e6836113e8565b5060ff8154916005810154906006810154600860078301549201549260405195865260208601526040850152606084015260018060a01b0381166080840152818160a01c16151560a084015260b01c16151560c0820152f35b5080548211156107c6565b5034610138576020366003190112610138576001600160a01b0361086c6113a4565b168152600160205260408120604051908160208254918281520190819285526020852090855b8181106108e957505050826108a891038361148e565b604051928392602084019060208552518091526040840192915b8181106108d0575050500390f35b82518452859450602093840193909201916001016108c2565b8254845260209093019260019283019201610892565b50346101385760c0366003190112610138576004356001600160401b0381116104fa57610930903690600401611372565b6024356001600160401b0381116103ea5761094f903690600401611372565b90926044356001600160401b0381116110f057610970903690600401611372565b6064356001600160401b0381116110ec5761098f903690600401611372565b929060a4359360038510156110e8576109a9368585611618565b60208151910120926109bc368385611618565b60208151910120946109cc61165e565b9a8c549960018b01998a8c116110d4578d8b81526020019c36906109ef92611618565b8c5236906109fc92611618565b60408c01523690610a0c92611618565b60608a01523690610a1c92611618565b608088015260a087015260c086015260843560e0860152336101008601526001610120860152610a50906101408601611553565b84610160850152600160401b821015610d68578455610a6e906113e8565b9190916110c05782518255519283516001600160401b0381116110ac57610a986001840154611422565b601f8111611068575b50602094601f8211600114611000579482939495829392610ff5575b50508160011b916000199060031b1c19161760018301555b60408301519283516001600160401b038111610fe157610af86002850154611422565b601f8111610f9d575b50602094601f8211600114610f35579483949582939492610f2a575b50508160011b916000199060031b1c19161760028401555b60608101519283516001600160401b038111610f1657610b586003830154611422565b601f8111610ece575b50602094601f8211600114610e66579484958293949592610e5b575b50508160011b916000199060031b1c19161760038201555b6004810160808301518051906001600160401b038211610e4757610bb98354611422565b601f8111610e02575b50602090601f8311600114610d9b57600894939291879183610d90575b50508160011b916000199060031b1c19161790555b60a083810151600583015560c0840151600683015560e084015160078301556101008401519290910180546101208501516001600160a81b03199091166001600160a01b03949094169390931792151590911b60ff60a01b169190911781556101408201516003811015610d7c57815461016084015161ffff60a81b1990911660a89290921b60ff60a81b169190911790151560b01b60ff60b01b16179055338252600160205260408220815190805490600160401b821015610d685790610cc1916001820181556113ba565b819291549060031b91821b91600019901b19161790558051916040519233817ffcd335a152e711f7e0e74487e27043f438dc7e73d600889758eb946a0192c3e08480a36003546001600160a01b031690813b156104eb576024858480948294632a59c89760e01b845260048401525af1928315610d5b57602093610d4b575b505051604051908152f35b81610d559161148e565b38610d40565b50604051903d90823e3d90fd5b634e487b7160e01b85526041600452602485fd5b634e487b7160e01b84526021600452602484fd5b015190503880610bdf565b8387528187209190601f198416885b818110610dea575091600193918560089897969410610dd1575b505050811b019055610bf4565b015160001960f88460031b161c19169055388080610dc4565b92936020600181928786015181550195019301610daa565b83875260208720601f840160051c81019160208510610e3d575b601f0160051c01905b818110610e325750610bc2565b878155600101610e25565b9091508190610e1c565b634e487b7160e01b86526041600452602486fd5b015190503880610b7d565b601f1982169560038401865280862091865b888110610eb657508360019596979810610e9d575b505050811b016003820155610b95565b015160001960f88460031b161c19169055388080610e8d565b91926020600181928685015181550194019201610e78565b60038301855260208520601f830160051c81019160208410610f0c575b601f0160051c01905b818110610f015750610b61565b858155600101610ef4565b9091508190610eeb565b634e487b7160e01b84526041600452602484fd5b015190503880610b1d565b601f1982169560028601855280852091855b888110610f8557508360019596979810610f6c575b505050811b016002840155610b35565b015160001960f88460031b161c19169055388080610f5c565b91926020600181928685015181550194019201610f47565b60028501845260208420601f830160051c810160208410610fda575b601f830160051c82018110610fcf575050610b01565b858155600101610fb9565b5080610fb9565b634e487b7160e01b83526041600452602483fd5b015190503880610abd565b601f1982169560018501845280842091845b88811061105057508360019596979810611037575b505050811b016001830155610ad5565b015160001960f88460031b161c19169055388080611027565b91926020600181928685015181550194019201611012565b60018401835260208320601f830160051c8101602084106110a5575b601f830160051c8201811061109a575050610aa1565b848155600101611084565b5080611084565b634e487b7160e01b82526041600452602482fd5b634e487b7160e01b84526004849052602484fd5b634e487b7160e01b8f52601160045260248ffd5b8980fd5b8780fd5b8580fd5b503461013857806003193601126101385760209054604051908152f35b50346101385780600319360112610138576003546040516001600160a01b039091168152602090f35b503461013857806003193601126101385780546001600160401b0381116110ac5760405161116e60208360051b018261148e565b8181528280526020810191837f290decd9548b62a8d60345a988386fc84ba6bc95484008f6362f93160ef3e563845b83831061120957868587604051928392602084019060208552518091526040840160408260051b8601019392905b8282106111da57505050500390f35b919360019193955060206111f98192603f198a820301865288516112b0565b96019201920185949391926111cb565b600960206001926112198561155f565b81520192019201919061119d565b9050346104fa57816003193601126104fa576002546001600160a01b03168152602090f35b919082519283825260005b848110611278575050826000602080949584010152601f8019910116010190565b80602080928401015182828601015201611257565b90600382101561129a5752565b634e487b7160e01b600052602160045260246000fd5b9081518152610160806113136113016112ef6112dd6020880151610180602089015261018088019061124c565b6040880151878203604089015261124c565b6060870151868203606088015261124c565b6080860151858203608087015261124c565b9360a081015160a085015260c081015160c085015260e081015160e085015260018060a01b0361010082015116610100850152610120810151151561012085015261136861014082015161014086019061128d565b0151151591015290565b9181601f8401121561139f578235916001600160401b03831161139f576020838186019501011161139f57565b600080fd5b600435906001600160a01b038216820361139f57565b80548210156113d25760005260206000200190600090565b634e487b7160e01b600052603260045260246000fd5b6000548110156113d25760008080526009919091027f290decd9548b62a8d60345a988386fc84ba6bc95484008f6362f93160ef3e5630191565b90600182811c92168015611452575b602083101461143c57565b634e487b7160e01b600052602260045260246000fd5b91607f1691611431565b61018081019081106001600160401b0382111761147857604052565b634e487b7160e01b600052604160045260246000fd5b90601f801991011681019081106001600160401b0382111761147857604052565b90604051918260008254926114c384611422565b808452936001811690811561153157506001146114ea575b506114e89250038361148e565b565b90506000929192526020600020906000915b8183106115155750509060206114e892820101386114db565b60209193508060019154838589010152019101909184926114fc565b9050602092506114e894915060ff191682840152151560051b820101386114db565b600382101561129a5752565b9060405161156c8161145c565b61016060ff6008839580548552611585600182016114af565b6020860152611596600282016114af565b60408601526115a7600382016114af565b60608601526115b8600482016114af565b6080860152600581015460a0860152600681015460c0860152600781015460e0860152015460018060a01b038116610100850152818160a01c16151561012085015261160d828260a81c166101408601611553565b60b01c161515910152565b9291926001600160401b0382116114785760405191611641601f8201601f19166020018461148e565b82948184528183011161139f578281602093846000960137010152565b6040519061166b8261145c565b6000610160838281526060602082015260606040820152606080820152606060808201528260a08201528260c08201528260e08201528261010082015282610120820152826101408201520152565b156116c157565b60405162461bcd60e51b815260206004820152600d60248201526c092dcecc2d8d2c840d2dcc8caf609b1b6044820152606490fdfea2646970667358221220ae01d8f13c7b6f3dcd1c403c61fb04d5d3b98860b5b3ad51111318267d84b3a664736f6c634300081c0033",
  "linkReferences": {},
  "deployedLinkReferences": {}
}