{
  "_format": "hh-sol-artifact-1",
  "contractName": "TaskManager",
  "sourceName": "contracts/TaskManager.sol",
  "abi": [
    {
      "inputs": [
        {
          "internalType": "address",
          "name": "tokenAddress",
          "type": "address"
        },
        {
          "internalType": "address",
          "name": "organizationAddress",
          "type": "address"
        }
      ],
      "stateMutability": "nonpayable",
      "type": "constructor"
    },
    {
      "anonymous": false,
      "inputs": [
        {
          "indexed": true,
          "internalType": "uint256",
          "name": "taskId",
          "type": "uint256"
        }
      ],
      "name": "TaskAssigned",
      "type": "event"
    },
    {
      "anonymous": false,
      "inputs": [
        {
          "indexed": true,
          "internalType": "uint256",
          "name": "taskId",
          "type": "uint256"
        },
        {
          "indexed": true,
          "internalType": "address",
          "name": "oracle",
          "type": "address"
        }
      ],
      "name": "TaskOracleRequested",
      "type": "event"
    },
    {
      "anonymous": false,
      "inputs": [
        {
          "indexed": true,
          "internalType": "uint256",
          "name": "taskId",
          "type": "uint256"
        },
        {
          "indexed": true,
          "internalType": "address",
          "name": "executor",
          "type": "address"
        },
        {
          "indexed": false,
          "internalType": "string",
          "name": "proofURI",
          "type": "string"
        }
      ],
      "name": "TaskProofSubmitted",
      "type": "event"
    },
    {
      "anonymous": false,
      "inputs": [
        {
          "indexed": false,
          "internalType": "uint256",
          "name": "taskId",
          "type": "uint256"
        },
        {
          "indexed": true,
          "internalType": "address",
          "name": "creator",
          "type": "address"
        }
      ],
      "name": "TaskRegistered",
      "type": "event"
    },
    {
      "anonymous": false,
      "inputs": [
        {
          "indexed": true,
          "internalType": "uint256",
          "name": "taskId",
          "type": "uint256"
        },
        {
          "indexed": false,
          "internalType": "string",
          "name": "reason",
          "type": "string"
        }
      ],
      "name": "TaskRejected",
      "type": "event"
    },
    {
      "anonymous": false,
      "inputs": [
        {
          "indexed": false,
          "internalType": "uint256",
          "name": "taskId",
          "type": "uint256"
        }
      ],
      "name": "TaskRemoved",
      "type": "event"
    },
    {
      "anonymous": false,
      "inputs": [
        {
          "indexed": false,
          "internalType": "uint256",
          "name": "taskId",
          "type": "uint256"
        },
        {
          "indexed": false,
          "internalType": "address",
          "name": "executor",
          "type": "address"
        },
        {
          "indexed": false,
          "internalType": "uint256",
          "name": "reward",
          "type": "uint256"
        }
      ],
      "name": "TaskRewardPaid",
      "type": "event"
    },
    {
      "anonymous": false,
      "inputs": [
        {
          "indexed": true,
          "internalType": "uint256",
          "name": "taskId",
          "type": "uint256"
        }
      ],
      "name": "TaskUnassigned",
      "type": "event"
    },
    {
      "anonymous": false,
      "inputs": [
        {
          "indexed": true,
          "internalType": "uint256",
          "name": "taskId",
          "type": "uint256"
        }
      ],
      "name": "TaskVerified",
      "type": "event"
    },
    {
      "inputs": [],
      "name": "MAX_REASON_LENGTH",
      "outputs": [
        {
          "internalType": "uint256",
          "name": "",
          "type": "uint256"
        }
      ],
      "stateMutability": "view",
      "type": "function"
    },
    {
      "inputs": [
        {
          "internalType": "uint256",
          "name": "taskId",
          "type": "uint256"
        }
      ],
      "name": "_unassignTask",
      "outputs": [],
      "stateMutability": "nonpayable",
      "type": "function"
    },
    {
      "inputs": [
        {
          "internalType": "uint256",
          "name": "taskId",
          "type": "uint256"
        }
      ],
      "name": "activateTask",
      "outputs": [],
      "stateMutability": "nonpayable",
      "type": "function"
    },
    {
      "inputs": [
        {
          "internalType": "uint256",
          "name": "taskId",
          "type": "uint256"
        },
        {
          "internalType": "address",
          "name": "executor",
          "type": "address"
        },
        {
          "internalType": "uint256",
          "name": "reward",
          "type": "uint256"
        }
      ],
      "name": "assignTaskExecutor",
      "outputs": [],
      "stateMutability": "nonpayable",
      "type": "function"
    },
    {
      "inputs": [
        {
          "internalType": "uint256",
          "name": "taskId",
          "type": "uint256"
        }
      ],
      "name": "completeTask",
      "outputs": [],
      "stateMutability": "nonpayable",
      "type": "function"
    },
    {
      "inputs": [
        {
          "internalType": "address",
          "name": "",
          "type": "address"
        },
        {
          "internalType": "uint256",
          "name": "",
          "type": "uint256"
        }
      ],
      "name": "creatorToTaskIds",
      "outputs": [
        {
          "internalType": "uint256",
          "name": "",
          "type": "uint256"
        }
      ],
      "stateMutability": "view",
      "type": "function"
    },
    {
      "inputs": [],
      "name": "getAllTasks",
      "outputs": [
        {
          "components": [
            {
              "internalType": "uint256",
              "name": "id",
              "type": "uint256"
            },
            {
              "internalType": "string",
              "name": "description",
              "type": "string"
            },
            {
              "internalType": "string",
              "name": "taskCategory",
              "type": "string"
            },
            {
              "internalType": "string",
              "name": "taskType",
              "type": "string"
            },
            {
              "internalType": "bytes32",
              "name": "categoryHash",
              "type": "bytes32"
            },
            {
              "internalType": "bytes32",
              "name": "taskTypeHash",
              "type": "bytes32"
            },
            {
              "internalType": "address",
              "name": "creator",
              "type": "address"
            },
            {
              "internalType": "uint256",
              "name": "reward",
              "type": "uint256"
            },
            {
              "internalType": "enum TaskStatus",
              "name": "status",
              "type": "uint8"
            },
            {
              "internalType": "address",
              "name": "executor",
              "type": "address"
            },
            {
              "internalType": "bool",
              "name": "active",
              "type": "bool"
            },
            {
              "internalType": "string",
              "name": "proofURI",
              "type": "string"
            },
            {
              "internalType": "address",
              "name": "oracle",
              "type": "address"
            },
            {
              "internalType": "bool",
              "name": "verified",
              "type": "bool"
            }
          ],
          "internalType": "struct TaskManager.Task[]",
          "name": "",
          "type": "tuple[]"
        }
      ],
      "stateMutability": "view",
      "type": "function"
    },
    {
      "inputs": [
        {
          "internalType": "uint256",
          "name": "taskId",
          "type": "uint256"
        }
      ],
      "name": "getTask",
      "outputs": [
        {
          "components": [
            {
              "internalType": "uint256",
              "name": "id",
              "type": "uint256"
            },
            {
              "internalType": "string",
              "name": "description",
              "type": "string"
            },
            {
              "internalType": "string",
              "name": "taskCategory",
              "type": "string"
            },
            {
              "internalType": "string",
              "name": "taskType",
              "type": "string"
            },
            {
              "internalType": "bytes32",
              "name": "categoryHash",
              "type": "bytes32"
            },
            {
              "internalType": "bytes32",
              "name": "taskTypeHash",
              "type": "bytes32"
            },
            {
              "internalType": "address",
              "name": "creator",
              "type": "address"
            },
            {
              "internalType": "uint256",
              "name": "reward",
              "type": "uint256"
            },
            {
              "internalType": "enum TaskStatus",
              "name": "status",
              "type": "uint8"
            },
            {
              "internalType": "address",
              "name": "executor",
              "type": "address"
            },
            {
              "internalType": "bool",
              "name": "active",
              "type": "bool"
            },
            {
              "internalType": "string",
              "name": "proofURI",
              "type": "string"
            },
            {
              "internalType": "address",
              "name": "oracle",
              "type": "address"
            },
            {
              "internalType": "bool",
              "name": "verified",
              "type": "bool"
            }
          ],
          "internalType": "struct TaskManager.Task",
          "name": "",
          "type": "tuple"
        }
      ],
      "stateMutability": "view",
      "type": "function"
    },
    {
      "inputs": [
        {
          "internalType": "uint256",
          "name": "taskId",
          "type": "uint256"
        }
      ],
      "name": "getTaskMeta",
      "outputs": [
        {
          "internalType": "uint256",
          "name": "tId",
          "type": "uint256"
        },
        {
          "internalType": "bytes32",
          "name": "categoryHash",
          "type": "bytes32"
        },
        {
          "internalType": "bytes32",
          "name": "taskTypeHash",
          "type": "bytes32"
        },
        {
          "internalType": "bool",
          "name": "active",
          "type": "bool"
        },
        {
          "internalType": "uint256",
          "name": "reward",
          "type": "uint256"
        }
      ],
      "stateMutability": "view",
      "type": "function"
    },
    {
      "inputs": [
        {
          "internalType": "address",
          "name": "creator",
          "type": "address"
        }
      ],
      "name": "getTasksByCreator",
      "outputs": [
        {
          "internalType": "uint256[]",
          "name": "",
          "type": "uint256[]"
        }
      ],
      "stateMutability": "view",
      "type": "function"
    },
    {
      "inputs": [],
      "name": "getTotalTasks",
      "outputs": [
        {
          "internalType": "uint256",
          "name": "",
          "type": "uint256"
        }
      ],
      "stateMutability": "view",
      "type": "function"
    },
    {
      "inputs": [],
      "name": "nextTaskId",
      "outputs": [
        {
          "internalType": "uint256",
          "name": "",
          "type": "uint256"
        }
      ],
      "stateMutability": "view",
      "type": "function"
    },
    {
      "inputs": [],
      "name": "oracle",
      "outputs": [
        {
          "internalType": "address",
          "name": "",
          "type": "address"
        }
      ],
      "stateMutability": "view",
      "type": "function"
    },
    {
      "inputs": [
        {
          "internalType": "uint256",
          "name": "taskId",
          "type": "uint256"
        },
        {
          "internalType": "bool",
          "name": "ok",
          "type": "bool"
        },
        {
          "internalType": "string",
          "name": "reason",
          "type": "string"
        }
      ],
      "name": "oracleFulfill",
      "outputs": [],
      "stateMutability": "nonpayable",
      "type": "function"
    },
    {
      "inputs": [],
      "name": "organization",
      "outputs": [
        {
          "internalType": "contract IOrganization",
          "name": "",
          "type": "address"
        }
      ],
      "stateMutability": "view",
      "type": "function"
    },
    {
      "inputs": [
        {
          "internalType": "string",
          "name": "description",
          "type": "string"
        },
        {
          "internalType": "string",
          "name": "category",
          "type": "string"
        },
        {
          "internalType": "string",
          "name": "taskType",
          "type": "string"
        },
        {
          "internalType": "uint256",
          "name": "reward",
          "type": "uint256"
        }
      ],
      "name": "registerTask",
      "outputs": [
        {
          "internalType": "uint256",
          "name": "",
          "type": "uint256"
        }
      ],
      "stateMutability": "nonpayable",
      "type": "function"
    },
    {
      "inputs": [
        {
          "internalType": "uint256",
          "name": "taskId",
          "type": "uint256"
        }
      ],
      "name": "removeTask",
      "outputs": [],
      "stateMutability": "nonpayable",
      "type": "function"
    },
    {
      "inputs": [
        {
          "internalType": "address",
          "name": "_oracle",
          "type": "address"
        }
      ],
      "name": "setOracle",
      "outputs": [],
      "stateMutability": "nonpayable",
      "type": "function"
    },
    {
      "inputs": [
        {
          "internalType": "uint256",
          "name": "taskId",
          "type": "uint256"
        },
        {
          "internalType": "string",
          "name": "proofURI",
          "type": "string"
        }
      ],
      "name": "submitProof",
      "outputs": [],
      "stateMutability": "nonpayable",
      "type": "function"
    },
    {
      "inputs": [
        {
          "internalType": "uint256",
          "name": "",
          "type": "uint256"
        }
      ],
      "name": "tasks",
      "outputs": [
        {
          "internalType": "uint256",
          "name": "id",
          "type": "uint256"
        },
        {
          "internalType": "string",
          "name": "description",
          "type": "string"
        },
        {
          "internalType": "string",
          "name": "taskCategory",
          "type": "string"
        },
        {
          "internalType": "string",
          "name": "taskType",
          "type": "string"
        },
        {
          "internalType": "bytes32",
          "name": "categoryHash",
          "type": "bytes32"
        },
        {
          "internalType": "bytes32",
          "name": "taskTypeHash",
          "type": "bytes32"
        },
        {
          "internalType": "address",
          "name": "creator",
          "type": "address"
        },
        {
          "internalType": "uint256",
          "name": "reward",
          "type": "uint256"
        },
        {
          "internalType": "enum TaskStatus",
          "name": "status",
          "type": "uint8"
        },
        {
          "internalType": "address",
          "name": "executor",
          "type": "address"
        },
        {
          "internalType": "bool",
          "name": "active",
          "type": "bool"
        },
        {
          "internalType": "string",
          "name": "proofURI",
          "type": "string"
        },
        {
          "internalType": "address",
          "name": "oracle",
          "type": "address"
        },
        {
          "internalType": "bool",
          "name": "verified",
          "type": "bool"
        }
      ],
      "stateMutability": "view",
      "type": "function"
    },
    {
      "inputs": [],
      "name": "token",
      "outputs": [
        {
          "internalType": "contract IECoin",
          "name": "",
          "type": "address"
        }
      ],
      "stateMutability": "view",
      "type": "function"
    },
    {
      "inputs": [
        {
          "internalType": "uint256",
          "name": "taskId",
          "type": "uint256"
        }
      ],
      "name": "unassignTask",
      "outputs": [],
      "stateMutability": "nonpayable",
      "type": "function"
    }
  ],
  "bytecode": "0x608034608b57601f6125a338819003918201601f19168301916001600160401b038311848410176090578084926040948552833981010312608b57604b602060458360a6565b920160a6565b6001600055600380546001600160a01b039384166001600160a01b031991821617909155600480549290931691161790556040516124e990816100ba8239f35b600080fd5b634e487b7160e01b600052604160045260246000fd5b51906001600160a01b0382168203608b5756fe608080604052600436101561001357600080fd5b600090813560e01c90816301a9249d14611da25750806302cb134e14611be35780630a1eea86146115235780631d045347146114cc5780631d65e77e146113fa57806323bd4d7a146113d15780632af00510146110d757806331a40131146110225780633c93b90514611004578063779900b414610f015780637adbf97314610e485780637dc0d1d014610e1f5780637ed7c4da14610b7a5780638d97767214610a2f578063a2f628e414610a13578063b47113e61461067a578063c308411714610500578063e1e295581461026b578063e6c2a66b146101f8578063fc0c546a146101cf578063fcc25e49146101325763fdc3d8d71461011357600080fd5b3461012f578060031936011261012f5760209054604051908152f35b80fd5b503461012f57602036600319011261012f5760043590811515806101c3575b61015a9061225f565b60001982019182116101af5760a06101718361210f565b508054906004810154906005810154600760ff600884015460a81c169201549260405194855260208501526040840152151560608301526080820152f35b634e487b7160e01b81526011600452602490fd5b50600154821115610151565b503461012f578060031936011261012f576003546040516001600160a01b039091168152602090f35b503461012f57602036600319011261012f5760045481906001600160a01b0316803b156102685781809160246040518094819363095d63f960e31b835260043560048401525af1801561025d5761024c5750f35b816102569161219a565b61012f5780f35b6040513d84823e3d90fd5b50fd5b503461012f57602036600319011261012f57600435801515806104f4575b6102929061225f565b60001981018181116104e0576102a79061210f565b50600881019182546102be60ff8260a81c16612475565b30330361048a5760ff1660038110156104765760016102dd911461229d565b8254600260ff60ff60a81b0119821681178555600354600794909401805460405163a9059cbb60e01b81526001600160a01b0360ff1990951690931760081c8416600484015260248301529390916020918391168188816044810103925af190811561046b57859161043c575b50156103fe5760045484906001600160a01b0316803b156103fa578180916024604051809481936377a3294d60e11b83528860048401525af1801561025d576103e1575b5050915490546040805193845260089290921c6001600160a01b03166020840152908201527f43ffb40a32a7115783ba742e992e68f09259a8b053dd483151bf1d183179c7bd9080606081015b0390a180f35b816103eb9161219a565b6103f657833861038e565b8380fd5b5080fd5b60405162461bcd60e51b815260206004820152601660248201527514995dd85c99081d1c985b9cd9995c8819985a5b195960521b6044820152606490fd5b61045e915060203d602011610464575b610456818361219a565b8101906122dd565b3861034a565b503d61044c565b6040513d87823e3d90fd5b634e487b7160e01b85526021600452602485fd5b60405162461bcd60e51b815260206004820152602860248201527f596f7520617265206e6f7420616c6c6f77656420746f20636f6d706c65746520604482015267746865207461736b60c01b6064820152608490fd5b634e487b7160e01b83526011600452602483fd5b50600154811115610289565b503461012f57602036600319011261012f576004358015158061066e575b6105279061225f565b60001981018181116104e05761053c9061210f565b5060068101546001600160a01b03163303610629576008019081549060ff8260a81c16156105f25760ff82166003811015610476576105ad577f36a2f40cfe61ace5baf26a6e4f86ffa75c62392fde263d354d42e0e718fa4bd19260209260ff60a81b19169055604051908152a180f35b60405162461bcd60e51b815260206004820152601b60248201527f5461736b20697320617373676e6564206f7220657865637574656400000000006044820152606490fd5b60405162461bcd60e51b815260206004820152600f60248201526e105b1c9958591e481c995b5bdd9959608a1b6044820152606490fd5b60405162461bcd60e51b815260206004820152601c60248201527f4f6e6c792063726561746f722063616e2072656d6f7665207461736b000000006044820152606490fd5b5060015481111561051e565b503461012f57606036600319011261012f576004356024356001600160a01b0381168103610a0f57600454604435906001600160a01b031633036109d957821515806109cd575b6106ca9061225f565b60001983018381116109b9576106df9061210f565b5091600883019060ff82541660038110156109a55761096d578154600160089290921b610100600160a81b03166001600160a81b031990911617179055600782018190556003546006909201546040516370a0823160e01b81526001600160a01b03918216600482018190529190931692909190602081602481875afa80156108e85782918791610938575b50106108f357604051636eb1769f60e11b815260048101839052306024820152602081604481875afa80156108e857829187916108ae575b50106108755760646020928660405195869485936323b872dd60e01b8552600485015230602485015260448401525af190811561086a57839161084b575b501561080e577f1f51df2141bb6e1ea3e178804d5c44138a11468bd5d07dab3b6b0ba55ba79e2a8280a280f35b60405162461bcd60e51b8152602060048201526015602482015274151bdad95b881d1c985b9cd9995c8819985a5b1959605a1b6044820152606490fd5b610864915060203d60201161046457610456818361219a565b386107e1565b6040513d85823e3d90fd5b60405162461bcd60e51b8152602060048201526011602482015270416c6c6f77616e636520746f6f206c6f7760781b6044820152606490fd5b9150506020813d6020116108e0575b816108ca6020938361219a565b810103126108db57819051386107a3565b600080fd5b3d91506108bd565b6040513d88823e3d90fd5b60405162461bcd60e51b815260206004820152601a60248201527f496e73756666696369656e7420746f6b656e2062616c616e63650000000000006044820152606490fd5b9150506020813d602011610965575b816109546020938361219a565b810103126108db578190513861076b565b3d9150610947565b60405162461bcd60e51b815260206004820152601060248201526f105b1c9958591e48185cdcda59db995960821b6044820152606490fd5b634e487b7160e01b87526021600452602487fd5b634e487b7160e01b85526011600452602485fd5b506001548311156106c1565b60405162461bcd60e51b815260206004820152600e60248201526d139bdd08185d5d1a1bdc9a5e995960921b6044820152606490fd5b8280fd5b503461012f578060031936011261012f57602060405160808152f35b503461012f57602036600319011261012f576004356001548110156103fa57610a579061210f565b508054610a66600183016121bb565b91610a73600282016121bb565b90610a80600382016121bb565b6004820154906005830154600160a01b6001900360068501541660078501549160088601549360098701610ab3906121bb565b96600a0154976040519a8b9a8b5260208b016101c090526101c08b01610ad891611fc1565b8a810360408c0152610ae991611fc1565b89810360608b0152610afa91611fc1565b94608089015260a088015260c087015260e0860152610100850160ff821690610b2291612002565b6001600160a01b03600882901c1661012086015260a81c60ff161515610140850152838103610160850152610b5691611fc1565b90600160a01b60019003811661018084015260a01c60ff1615156101a08301520390f35b503461012f57606036600319011261012f576024356004358115158203610a0f576044356001600160401b0381116103f657610bba903690600401611f50565b6005549091906001600160a01b03163303610dec5782151580610de0575b610be19061225f565b6000198301838111610dcc57610bf69061210f565b509315610cd5575050600a8201805460ff60a01b1916600160a01b179055303b15610a0f5782604051631c3c52ab60e31b8152826004820152818160248183305af1801561025d57610cc0575b50507f43ffb40a32a7115783ba742e992e68f09259a8b053dd483151bf1d183179c7bd916103db604051928392817f25f30079a8797619f323901dc372ffe219d4aff4bfa6c74a3ecf6544f81c441e8880a2600881810154600792909201549285521c6001600160a01b0316602084015260408301526060820190565b81610cca9161219a565b610a0f578238610c43565b600a909301805460ff60a01b191690556004549192909184906001600160a01b0316803b156103fa5781809160246040518094819363095d63f960e31b83528a60048401525af1801561025d57610db7575b505060808211610d7b57610d61610d75917f390c76936603b7c3075a763c4d3207ad69515b5b8814308081dec06f5f86ae889336916122f5565b604051918291602083526020830190611fc1565b0390a280f35b50507f390c76936603b7c3075a763c4d3207ad69515b5b8814308081dec06f5f86ae88610d75604051610daf60208261219a565b848152610d61565b81610dc19161219a565b6103f6578338610d27565b634e487b7160e01b86526011600452602486fd5b50600154831115610bd8565b60405162461bcd60e51b815260206004820152600b60248201526a4f6e6c79206f7261636c6560a81b6044820152606490fd5b503461012f578060031936011261012f576005546040516001600160a01b039091168152602090f35b503461012f57602036600319011261012f57610e62611f7d565b6004546001600160a01b03163303610ed1576001600160a01b03168015610e9e576bffffffffffffffffffffffff60a01b600554161760055580f35b60405162461bcd60e51b815260206004820152600b60248201526a5a65726f206f7261636c6560a81b6044820152606490fd5b60405162461bcd60e51b81526020600482015260086024820152674f6e6c79206f726760c01b6044820152606490fd5b503461012f578060031936011261012f576001546001600160401b038111610ff057604051610f3660208360051b018261219a565b818152600183526020810191837fb10e2d527612073b26eecdfd717e6a320cf44b4afac2b0732d9fcbe2b7fa0cf6845b838310610fd257868587604051928392602084019060208552518091526040840160408260051b8601019392905b828210610fa357505050500390f35b91936001919395506020610fc28192603f198a82030186528851612025565b9601920192018594939192610f94565b600b6020600192610fe28561238d565b815201920192019190610f66565b634e487b7160e01b82526041600452602482fd5b503461012f578060031936011261012f576020600154604051908152f35b503461012f57602036600319011261012f576001600160a01b03611044611f7d565b168152600260205260408120604051908160208254918281520190819285526020852090855b8181106110c1575050508261108091038361219a565b604051928392602084019060208552518091526040840192915b8181106110a8575050500390f35b825184528594506020938401939092019160010161109a565b825484526020909301926001928301920161106a565b503461012f57604036600319011261012f576004356024356001600160401b038111610a0f5761110b903690600401611f50565b821515806113c5575b61111d9061225f565b60001983018381116109b9576111329061210f565b506008810190815461114960ff8260a81c16612475565b60ff811660038110156113b15760010361137a5760081c6001600160a01b0316330361133c57821561130d576009016001600160401b0383116112f957908161119e846111988896955461212e565b8361233b565b86601f841160011461126a57916040916111f185807fc8f170662eecd87666651b7562849a1c023c187dc55b96b84b0d865aef6a990797968c9161125f575b508160011b916000199060031b1c19161790565b90555b60018060a01b03905460081c169482825193849260208452816020850152848401378181018301899052601f01601f19168101030190a36005546001600160a01b0316907f85e896c517d0cd974fd7941ec50f723a16631f8185ecb57f7579181627b680298380a380f35b9050890135386111dd565b93929190601f1983168189526020892090895b8181106112de5750907fc8f170662eecd87666651b7562849a1c023c187dc55b96b84b0d865aef6a99079596856040959493106112c4575b5050600184811b0190556111f4565b880135600019600387901b60f8161c1916905538806112b5565b8888013583556020978801978a97506001909301920161127d565b634e487b7160e01b86526041600452602486fd5b60405162461bcd60e51b81526020600482015260076024820152664261642055524960c81b6044820152606490fd5b60405162461bcd60e51b815260206004820152601660248201527527b7363c9030b9b9b4b3b732b21032bc32b1baba37b960511b6044820152606490fd5b60405162461bcd60e51b815260206004820152600f60248201526e139bdd081a5b88105cdcda59db9959608a1b6044820152606490fd5b634e487b7160e01b88526021600452602488fd5b50600154831115611114565b503461012f578060031936011261012f576004546040516001600160a01b039091168152602090f35b503461012f57602036600319011261012f5760043590806101a060405161142081612168565b82815260606020820152606060408201526060808201528260808201528260a08201528260c08201528260e08201528261010082015282610120820152826101408201526060610160820152826101808201520152811515806114c0575b6114879061225f565b60001982019182116101af576114bc6114a86114a28461210f565b5061238d565b604051918291602083526020830190612025565b0390f35b5060015482111561147e565b503461012f57604036600319011261012f576114e6611f7d565b6001600160a01b031681526002602052604081208054602435929083101561012f5760206115148484611f93565b90549060031b1c604051908152f35b503461012f57608036600319011261012f576004356001600160401b0381116103fa57611554903690600401611f50565b906024356001600160401b0381116103f657611574903690600401611f50565b906044356001600160401b038111611bdf57611594903690600401611f50565b91906116086115a43686856122f5565b60208151910120916115f96115ba3687846122f5565b60208151910120946115ea8b549960018060a01b03600554169b6040519b6115e18d612168565b8c5236916122f5565b9760208a0198895236916122f5565b946040880195865236916122f5565b6060860152608085015260a08401523360c084015260643560e084015284610100840152846101208401526001610140840152604093845161164a868261219a565b60048152636e6f6e6560e01b6020820152610160850152610180840152846101a0840152600154600160401b8110156112f95780600161168d920160015561210f565b929092611bcb5783518355518051906001600160401b038211611a6e576116c4826116bb600187015461212e565b6001870161233b565b602090601f8311600114611b62576116f492918891836119f9575b50508160011b916000199060031b1c19161790565b60018301555b518051906001600160401b0382116112f9576117268261171d600286015461212e565b6002860161233b565b602090601f8311600114611af95761175592918791836119f95750508160011b916000199060031b1c19161790565b60028201555b6003810160608301518051906001600160401b038211611a6e5761178982611783855461212e565b8561233b565b602090601f8311600114611a96576117b892918891836119f95750508160011b916000199060031b1c19161790565b90555b6080820151600482015560a0820151600582015560c08201516006820180546001600160a01b0319166001600160a01b039290921691909117905560e0820151600782015561010082015160088201906003811015611a82578154610120850151610100600160a81b0360089190911b1660ff929092166001600160a81b031990911617178155610140830151815460ff60a81b191690151560a81b60ff60a81b16179055610160820151805160098301916001600160401b038211611a6e5761188982611783855461212e565b602090601f8311600114611a0457826101a09593600a95936118c0938b926119f95750508160011b916000199060031b1c19161790565b90555b6101808401519101805492909301516001600160a81b03199092166001600160a01b03919091161790151560a01b60ff60a01b161790553382526002602052808220825481549091600160401b8210156119e5579061192791600182018155611f93565b819291549060031b91821b91600019901b191617905581805482518181527f1334d90f48e1181bbe6b394f83f4e9568638ae650507823309c69c03c95ec7ad60203392a26004546001600160a01b031690813b15610a0f57829160248392865194859384926308f3d57160e21b845260048401525af180156119d8576119c3575b50549060001982146104e05760209260018301905551908152f35b816119cd9161219a565b6103fa5781386119a8565b50505051903d90823e3d90fd5b634e487b7160e01b85526041600452602485fd5b0151905038806116df565b8388528188209190601f198416895b818110611a5657509260019285926101a09896600a989610611a3d575b505050811b0190556118c3565b015160001960f88460031b161c19169055388080611a30565b92936020600181928786015181550195019301611a13565b634e487b7160e01b87526041600452602487fd5b634e487b7160e01b86526021600452602486fd5b8388528188209190601f198416895b818110611ae15750908460019594939210611ac8575b505050811b0190556117bb565b015160001960f88460031b161c19169055388080611abb565b92936020600181928786015181550195019301611aa5565b6002840187528187209190601f198416885b818110611b4a5750908460019594939210611b31575b505050811b01600282015561175b565b015160001960f88460031b161c19169055388080611b21565b92936020600181928786015181550195019301611b0b565b6001850188528188209190601f198416895b818110611bb35750908460019594939210611b9a575b505050811b0160018301556116fa565b015160001960f88460031b161c19169055388080611b8a565b92936020600181928786015181550195019301611b74565b634e487b7160e01b86526004869052602486fd5b8580fd5b503461012f57602036600319011261012f576004359081151580611d96575b15611d61576000198201828111611d4d57611c1c9061210f565b5060068101546001600160a01b03163303611d0857600801805460ff8160a81c16611ccd5760ff60a81b1916600160a81b1790556004546001600160a01b0316803b156103fa578180916024604051809481936308f3d57160e21b83528860048401525af1801561025d57611cbd575b50906040519081527f1334d90f48e1181bbe6b394f83f4e9568638ae650507823309c69c03c95ec7ad60203392a280f35b81611cc79161219a565b38611c8c565b60405162461bcd60e51b81526020600482015260136024820152725461736b20616c72656164792061637469766560681b6044820152606490fd5b60405162461bcd60e51b815260206004820152601f60248201527f4f6e6c792063726561746f722063616e206163746976617465207461736b73006044820152606490fd5b634e487b7160e01b82526011600452602482fd5b60405162461bcd60e51b815260206004820152600d60248201526c092dcecc2d8d2c840d2dcc8caf609b1b6044820152606490fd5b50600154821115611c02565b9050346103fa5760203660031901126103fa5760048054903591906001600160a01b03163303611f0e575080151580611f02575b611ddf9061225f565b60001981018181116104e057611df49061210f565b506008810160ff81541660038110156104765791602091611e1a6001611e6f951461229d565b80546001600160a81b0319169055600354600682015460079092015460405163a9059cbb60e01b81526001600160a01b0393841660048201526024810191909152938492909116908290879082906044820190565b03925af190811561086a578391611ee3575b5015611eae577f54709a83868e6db3fedda84ee00f1878ae0a5155ae687cdd5c7510245d1e23418280a280f35b60405162461bcd60e51b815260206004820152600d60248201526c1499599d5b990819985a5b1959609a1b6044820152606490fd5b611efc915060203d60201161046457610456818361219a565b38611e81565b50600154811115611dd6565b62461bcd60e51b815260206004820152601f60248201527f4e6f7420617574686f72697a656420746f20756e61737369676e207461736b006044820152606490fd5b9181601f840112156108db578235916001600160401b0383116108db57602083818601950101116108db57565b600435906001600160a01b03821682036108db57565b8054821015611fab5760005260206000200190600090565b634e487b7160e01b600052603260045260246000fd5b919082519283825260005b848110611fed575050826000602080949584010152601f8019910116010190565b80602080928401015182828601015201611fcc565b90600382101561200f5752565b634e487b7160e01b600052602160045260246000fd5b90815181526101a0806120f061207661206461205260208801516101c060208901526101c0880190611fc1565b60408801518782036040890152611fc1565b60608701518682036060880152611fc1565b6080860151608086015260a086015160a086015260018060a01b0360c08701511660c086015260e086015160e08601526120ba610100870151610100870190612002565b60018060a01b03610120870151166101208601526101408601511515610140860152610160860151858203610160870152611fc1565b610180808601516001600160a01b031690850152930151151591015290565b600154811015611fab576001600052600b602060002091020190600090565b90600182811c9216801561215e575b602083101461214857565b634e487b7160e01b600052602260045260246000fd5b91607f169161213d565b6101c081019081106001600160401b0382111761218457604052565b634e487b7160e01b600052604160045260246000fd5b90601f801991011681019081106001600160401b0382111761218457604052565b90604051918260008254926121cf8461212e565b808452936001811690811561223d57506001146121f6575b506121f49250038361219a565b565b90506000929192526020600020906000915b8183106122215750509060206121f492820101386121e7565b6020919350806001915483858901015201910190918492612208565b9050602092506121f494915060ff191682840152151560051b820101386121e7565b1561226657565b60405162461bcd60e51b815260206004820152600f60248201526e125b9d985b1a59081d185cdac81251608a1b6044820152606490fd5b156122a457565b60405162461bcd60e51b815260206004820152601160248201527015185cdac81b9bdd08185cdcda59db9959607a1b6044820152606490fd5b908160209103126108db575180151581036108db5790565b9291926001600160401b038211612184576040519161231e601f8201601f19166020018461219a565b8294818452818301116108db578281602093846000960137010152565b601f821161234857505050565b6000526020600020906020601f840160051c83019310612383575b601f0160051c01905b818110612377575050565b6000815560010161236c565b9091508190612363565b9060405161239a81612168565b8092805482526123ac600182016121bb565b60208301526123bd600282016121bb565b60408301526123ce600382016121bb565b606083015260048101546080830152600581015460a083015260068101546001600160a01b031660c0830152600781015460e0830152600881015460ff811690600382101561200f576101a09260ff600a92819461010088015260018060a01b038160081c1661012088015260a81c161515610140860152612452600982016121bb565b61016086015201546001600160a01b03811661018085015260a01c161515910152565b1561247c57565b60405162461bcd60e51b815260206004820152600f60248201526e5461736b206e6f742061637469766560881b6044820152606490fdfea26469706673582212206c63395fd57e38d8a726d50459662fcbcaa2623b052c31c8be685e4de773cc2e64736f6c634300081c0033",
  "linkReferences": {},
  "deployedLinkReferences": {}
}