{
  "_format": "hh-sol-artifact-1",
  "contractName": "Organization",
  "sourceName": "contracts/before-refactor/Organization.sol",
  "abi": [
    {
      "inputs": [
        {
          "internalType": "address",
          "name": "_tokenAddress",
          "type": "address"
        },
        {
          "internalType": "address",
          "name": "_taskManager",
          "type": "address"
        },
        {
          "internalType": "address",
          "name": "_serviceManager",
          "type": "address"
        }
      ],
      "stateMutability": "nonpayable",
      "type": "constructor"
    },
    {
      "anonymous": false,
      "inputs": [
        {
          "indexed": false,
          "internalType": "uint256",
          "name": "serviceId",
          "type": "uint256"
        }
      ],
      "name": "ServiceRegisteredByOrg",
      "type": "event"
    },
    {
      "anonymous": false,
      "inputs": [
        {
          "indexed": false,
          "internalType": "uint256",
          "name": "serviceId",
          "type": "uint256"
        }
      ],
      "name": "ServiceRemovedByOrg",
      "type": "event"
    },
    {
      "anonymous": false,
      "inputs": [
        {
          "indexed": false,
          "internalType": "uint256",
          "name": "taskId",
          "type": "uint256"
        }
      ],
      "name": "TaskCompleted",
      "type": "event"
    },
    {
      "anonymous": false,
      "inputs": [
        {
          "indexed": false,
          "internalType": "uint256",
          "name": "taskId",
          "type": "uint256"
        }
      ],
      "name": "TaskRegisteredByManager",
      "type": "event"
    },
    {
      "anonymous": false,
      "inputs": [
        {
          "indexed": false,
          "internalType": "uint256",
          "name": "taskId",
          "type": "uint256"
        }
      ],
      "name": "TaskRegisteredByOrg",
      "type": "event"
    },
    {
      "inputs": [
        {
          "internalType": "uint256",
          "name": "taskId",
          "type": "uint256"
        }
      ],
      "name": "completeTask",
      "outputs": [],
      "stateMutability": "nonpayable",
      "type": "function"
    },
    {
      "inputs": [
        {
          "internalType": "uint256",
          "name": "amount",
          "type": "uint256"
        }
      ],
      "name": "deposit",
      "outputs": [],
      "stateMutability": "nonpayable",
      "type": "function"
    },
    {
      "inputs": [
        {
          "internalType": "uint256",
          "name": "serviceId",
          "type": "uint256"
        }
      ],
      "name": "onServiceRegistered",
      "outputs": [],
      "stateMutability": "nonpayable",
      "type": "function"
    },
    {
      "inputs": [
        {
          "internalType": "uint256",
          "name": "serviceId",
          "type": "uint256"
        }
      ],
      "name": "onServiceRemoved",
      "outputs": [],
      "stateMutability": "nonpayable",
      "type": "function"
    },
    {
      "inputs": [
        {
          "internalType": "uint256",
          "name": "taskId",
          "type": "uint256"
        }
      ],
      "name": "onTaskExpired",
      "outputs": [],
      "stateMutability": "nonpayable",
      "type": "function"
    },
    {
      "inputs": [
        {
          "internalType": "uint256",
          "name": "taskId",
          "type": "uint256"
        }
      ],
      "name": "onTaskRegistered",
      "outputs": [],
      "stateMutability": "nonpayable",
      "type": "function"
    },
    {
      "inputs": [],
      "name": "owner",
      "outputs": [
        {
          "internalType": "address",
          "name": "",
          "type": "address"
        }
      ],
      "stateMutability": "view",
      "type": "function"
    },
    {
      "inputs": [
        {
          "internalType": "string",
          "name": "name",
          "type": "string"
        },
        {
          "internalType": "string",
          "name": "description",
          "type": "string"
        },
        {
          "internalType": "string",
          "name": "category",
          "type": "string"
        },
        {
          "internalType": "string",
          "name": "serviceType",
          "type": "string"
        },
        {
          "internalType": "uint256",
          "name": "price",
          "type": "uint256"
        },
        {
          "internalType": "enum IServiceManager.ProviderType",
          "name": "providerType",
          "type": "uint8"
        }
      ],
      "name": "registerService",
      "outputs": [
        {
          "internalType": "uint256",
          "name": "",
          "type": "uint256"
        }
      ],
      "stateMutability": "nonpayable",
      "type": "function"
    },
    {
      "inputs": [
        {
          "internalType": "string",
          "name": "description",
          "type": "string"
        },
        {
          "internalType": "string",
          "name": "category",
          "type": "string"
        },
        {
          "internalType": "string",
          "name": "taskType",
          "type": "string"
        },
        {
          "internalType": "uint256",
          "name": "reward",
          "type": "uint256"
        }
      ],
      "name": "registerTask",
      "outputs": [
        {
          "internalType": "uint256",
          "name": "",
          "type": "uint256"
        }
      ],
      "stateMutability": "nonpayable",
      "type": "function"
    },
    {
      "inputs": [
        {
          "internalType": "uint256",
          "name": "serviceId",
          "type": "uint256"
        }
      ],
      "name": "removeService",
      "outputs": [],
      "stateMutability": "nonpayable",
      "type": "function"
    },
    {
      "inputs": [],
      "name": "serviceManager",
      "outputs": [
        {
          "internalType": "contract IServiceManager",
          "name": "",
          "type": "address"
        }
      ],
      "stateMutability": "view",
      "type": "function"
    },
    {
      "inputs": [
        {
          "internalType": "uint256",
          "name": "",
          "type": "uint256"
        }
      ],
      "name": "serviceToTask",
      "outputs": [
        {
          "internalType": "uint256",
          "name": "",
          "type": "uint256"
        }
      ],
      "stateMutability": "view",
      "type": "function"
    },
    {
      "inputs": [
        {
          "internalType": "address",
          "name": "_serviceManager",
          "type": "address"
        }
      ],
      "name": "setServiceManager",
      "outputs": [],
      "stateMutability": "nonpayable",
      "type": "function"
    },
    {
      "inputs": [
        {
          "internalType": "address",
          "name": "_taskManager",
          "type": "address"
        }
      ],
      "name": "setTaskManager",
      "outputs": [],
      "stateMutability": "nonpayable",
      "type": "function"
    },
    {
      "inputs": [],
      "name": "taskManager",
      "outputs": [
        {
          "internalType": "contract ITaskManager",
          "name": "",
          "type": "address"
        }
      ],
      "stateMutability": "view",
      "type": "function"
    },
    {
      "inputs": [
        {
          "internalType": "uint256",
          "name": "",
          "type": "uint256"
        }
      ],
      "name": "taskToService",
      "outputs": [
        {
          "internalType": "uint256",
          "name": "",
          "type": "uint256"
        }
      ],
      "stateMutability": "view",
      "type": "function"
    },
    {
      "inputs": [],
      "name": "token",
      "outputs": [
        {
          "internalType": "contract IECoin",
          "name": "",
          "type": "address"
        }
      ],
      "stateMutability": "view",
      "type": "function"
    }
  ],
  "bytecode": "0x60803460ae57601f6112e038819003918201601f19168301916001600160401b0383118484101760b35780849260609460405283398101031260ae5760428160c9565b906057604060516020840160c9565b920160c9565b600180546001600160a01b031990811633179091556000805482166001600160a01b039586161790556002805482169385169390931790925560038054909216921691909117905560405161120390816100dd8239f35b600080fd5b634e487b7160e01b600052604160045260246000fd5b51906001600160a01b038216820360ae5756fe6080604052600436101561001257600080fd5b6000803560e01c80630a1eea86146109ef57806323cf55c4146109935780632a59c8971461095e578063327d0a60146109075780633998fdd3146108de5780634082ca26146108b457806342b2459b14610823578063451ef6e41461063a5780638da5cb5b146106115780639b41bf23146105ba5780639b66b139146104e9578063a50a640e146104c0578063b6b55f2514610319578063c9ff25ef1461026b578063d7846f8714610241578063e1e29558146101015763fc0c546a146100d857600080fd5b346100fe57806003193601126100fe57546040516001600160a01b039091168152602090f35b80fd5b50346100fe5760203660031901126100fe5760043561012b60018060a01b03600154163314610b97565b80825260046020528160408120548282526004602052816040812055808252600560205281604081205560018060a01b036003541690813b1561023d57829160448392604051948593849263bb58ac2560e01b845260048401528160248401525af1801561021d57610228575b506002546001600160a01b0316803b1561021957818091602460405180948193631c3c52ab60e31b83528860048401525af1801561021d57610204575b507fc1fa7142cfb933d0855114a3bffde296944c30b727f297c14d0db4d553d3a5c7602083604051908152a180f35b8161020e91610bd4565b6102195781386101d5565b5080fd5b6040513d84823e3d90fd5b8161023291610bd4565b610219578138610198565b8280fd5b50346100fe5760203660031901126100fe5760406020916004358152600483522054604051908152f35b50346100fe5760203660031901126100fe578060043561029660018060a01b03600254163314610c2d565b808252600460205260408220549082526004602052816040812055808252600560205281604081205560018060a01b036003541690813b1561031557829160448392604051948593849263bb58ac2560e01b845260048401528160248401525af1801561021d576103045750f35b8161030e91610bd4565b6100fe5780f35b5050fd5b50346100fe5760203660031901126100fe5760043581602060018060a01b038254166064604051809481936323b872dd60e01b83523360048401523060248401528760448401525af19081156104b557839161047b575b501561043657815460025460405163095ea7b360e01b81526001600160a01b0391821660048201526024810193909352602091839160449183918791165af190811561021d5782916103fc575b50156103c65780f35b60405162461bcd60e51b815260206004820152600e60248201526d105c1c1c9bdd994819985a5b195960921b6044820152606490fd5b90506020813d60201161042e575b8161041760209383610bd4565b810103126102195761042890610c6f565b386103bd565b3d915061040a565b60405162461bcd60e51b815260206004820152601760248201527f4465706f736974207472616e73666572206661696c65640000000000000000006044820152606490fd5b90506020813d6020116104ad575b8161049660209383610bd4565b8101031261023d576104a790610c6f565b38610370565b3d9150610489565b6040513d85823e3d90fd5b50346100fe57806003193601126100fe576002546040516001600160a01b039091168152602090f35b50346100fe5760203660031901126100fe5760043561051360018060a01b03600154163314610b97565b60035482906001600160a01b0316803b1561021957818091602460405180948193639b66b13960e01b83528860048401525af1801561021d576105a5575b50817f72f9ca1ba339b2c5902767257da2067b14757f5e9a29cdb224ac23fbfc052289926020925260058252604084205484526004825283604081205580845260058252836040812055604051908152a180f35b816105af91610bd4565b610219578138610551565b50346100fe5760203660031901126100fe576004356001600160a01b03811690819003610219576105f660018060a01b03600154163314610b97565b6bffffffffffffffffffffffff60a01b600354161760035580f35b50346100fe57806003193601126100fe576001546040516001600160a01b039091168152602090f35b50346100fe5760c03660031901126100fe5760043567ffffffffffffffff81116102195761066c903690600401610b69565b60249291923567ffffffffffffffff811161023d5761068f903690600401610b69565b93909160443567ffffffffffffffff811161081f576106b2903690600401610b69565b9060643567ffffffffffffffff811161081b576106d3903690600401610b69565b909160a435936003851015610817576001546106f9906001600160a01b03163314610b97565b6003546040516369bb41f760e11b815260e060048201529a6001600160a01b03909116988b9889989192916107339160e48b019190610c0c565b906003198983030160248a015261074992610c0c565b9060031987830301604488015261075f92610c0c565b9060031985830301606486015261077592610c0c565b9060843560848401523060a484015260c48301520381845a94602095f190811561080b57906107d3575b6020907f4e8a74895618d2ece1d92d68da4bc96f1c3008401f2a439de44983ff0bafc71782604051838152a1604051908152f35b506020813d602011610803575b816107ed60209383610bd4565b810103126107fe576020905161079f565b600080fd5b3d91506107e0565b604051903d90823e3d90fd5b8880fd5b8680fd5b8480fd5b50346100fe5760203660031901126100fe5761084a60018060a01b03600354163314610b97565b6004358152600560205280604081205460018060a01b036002541690813b1561031557829160248392604051958693849263e6c2a66b60e01b845260048401525af180156108a7576108995780f35b6108a291610bd4565b388180f35b50604051903d90823e3d90fd5b50346100fe5760203660031901126100fe5760406020916004358152600583522054604051908152f35b50346100fe57806003193601126100fe576003546040516001600160a01b039091168152602090f35b50346100fe5760203660031901126100fe576004356001600160a01b038116908190036102195761094360018060a01b03600154163314610b97565b6bffffffffffffffffffffffff60a01b600254161760025580f35b50346100fe5760203660031901126100fe5761098560018060a01b03600354163314610b97565b610990600435610ff3565b80f35b50346100fe5760203660031901126100fe576109906004356109c060018060a01b03600254163314610c2d565b7faf7a43a796c880f71f24d34ec2c29ddb772f253b5fd900fbe7ef11b112d609366020604051838152a1610cf0565b50346100fe5760803660031901126100fe5760043567ffffffffffffffff811161021957610a21903690600401610b69565b60243567ffffffffffffffff8111610b6557610a41903690600401610b69565b9290604435918567ffffffffffffffff84116100fe57602094610adb610a6e610ab7963690600401610b69565b610a8360018060a01b03600154163314610b97565b610ac960018060a01b0360025416976040519b8c9a8b998a98637935e08760e11b8a5260a060048b015260a48a0191610c0c565b87810360031901602489015291610c0c565b84810360031901604486015291610c0c565b606435606483015230608483015203925af190811561021d578291610b2f575b6020827f185854ef38f0ae5181639a107c0539c2b1b2ee4eef5790111e0aa28eecf0012b82604051838152a1604051908152f35b90506020813d602011610b5d575b81610b4a60209383610bd4565b8101031261021957602091505138610afb565b3d9150610b3d565b8380fd5b9181601f840112156107fe5782359167ffffffffffffffff83116107fe57602083818601950101116107fe57565b15610b9e57565b60405162461bcd60e51b815260206004820152600e60248201526d139bdd08185d5d1a1bdc9a5e995960921b6044820152606490fd5b90601f8019910116810190811067ffffffffffffffff821117610bf657604052565b634e487b7160e01b600052604160045260246000fd5b908060209392818452848401376000828201840152601f01601f1916010190565b15610c3457565b60405162461bcd60e51b81526020600482015260136024820152722ab730baba3437b934bd32b21031b0b63632b960691b6044820152606490fd5b519081151582036107fe57565b91908260809103126107fe578151916020810151916060610c9f60408401610c6f565b92015190565b91908260c09103126107fe57815191602081015191604082015191606081015160018060a01b03811681036107fe5791610ced60a0610ce660808501610c6f565b9301610c6f565b90565b60025460405163fcc25e4960e01b81526004810183905291600091608090849060249082906001600160a01b03165afa90811561021d578293839084908594610fbb575b5015610d9757600354604051631b39202760e11b81526001600160a01b0390911695906020816004818a5afa908115610fb0578691610f7a575b508592600019958798885b848110610e86575050506001600160a01b0384169250610d9e915050575b5050505050565b8184526004602052846040852055848452600560205281604085205560018060a01b036002541691823b1561081f57604051635a3889f360e11b815260048101919091526001600160a01b03919091166024820152604481019290925282908290606490829084905af1801561021d57610e76575b509060018060a01b036003541690813b1561023d57829160448392604051948593849263bb58ac2560e01b84526004840152600160248401525af1801561021d57610e61575b808080610d97565b610e6c828092610bd4565b6100fe5780610e59565b81610e8091610bd4565b38610e13565b604051631c8bb35b60e21b81526004810182905260c081602481865afa8015610f6f578b86818a8391849585978691610f2e575b5085610f25575b5084610f1b575b505082610f11575b505080610f07575b80610efe575b610eed575b5050600101610d79565b919b50909850955089600138610ee3565b508a8110610ede565b5084811115610ed8565b1490508638610ed0565b1492508a38610ec8565b15945038610ec1565b9497505050935050610f57915060c03d8111610f68575b610f4f8183610bd4565b810190610ca5565b919692959094929392909138610eba565b503d610f45565b6040513d8d823e3d90fd5b90506020813d602011610fa8575b81610f9560209383610bd4565b81010312610fa4575138610d6e565b8580fd5b3d9150610f88565b6040513d88823e3d90fd5b9295505050610fe2915060803d608011610fec575b610fda8183610bd4565b810190610c7c565b9294919038610d34565b503d610fd0565b600354604051631c8bb35b60e21b81526004810183905260009160c090829060249082906001600160a01b03165afa90811561021d578290839184938592869087926111a3575b501590811561119b575b5061119357600254604051633c93b90560e01b81526001600160a01b0390911694602082600481895afa918215611188578792611154575b5086948796885b84811061109c5750505050505082610d9e575050505050565b60405163fcc25e4960e01b815260048101829052608081602481865afa908115610f6f57848c9189838492859661112c575b5084611122575b505082611118575b50508061110e575b80611105575b6110f9575b50600101611083565b985096508660016110f0565b508981116110eb565b50848110156110e5565b14905084386110dd565b14925089386110d5565b925050935061114a91925060803d8111610fec57610fda8183610bd4565b94909392386110ce565b9091506020813d602011611180575b8161117060209383610bd4565b8101031261081b5751903861107c565b3d9150611163565b6040513d89823e3d90fd5b505050505050565b905038611044565b9450505050506111c2915060c03d60c011610f6857610f4f8183610bd4565b92949192903861103a56fea2646970667358221220e745f0f20e11ffc686a055b22b1b28f8fa84b5d7121d7c5c4606be5bcd851a9e64736f6c634300081c0033",
  "linkReferences": {},
  "deployedLinkReferences": {}
}