{
  "_format": "hh-sol-artifact-1",
  "contractName": "ServiceManager",
  "sourceName": "contracts/before-refactor/ServiceManager.sol",
  "abi": [
    {
      "inputs": [
        {
          "internalType": "address",
          "name": "_organization",
          "type": "address"
        }
      ],
      "stateMutability": "nonpayable",
      "type": "constructor"
    },
    {
      "anonymous": false,
      "inputs": [
        {
          "indexed": true,
          "internalType": "uint256",
          "name": "serviceId",
          "type": "uint256"
        },
        {
          "indexed": false,
          "internalType": "bool",
          "name": "busy",
          "type": "bool"
        }
      ],
      "name": "ServiceBusyUpdated",
      "type": "event"
    },
    {
      "anonymous": false,
      "inputs": [
        {
          "indexed": true,
          "internalType": "uint256",
          "name": "serviceId",
          "type": "uint256"
        },
        {
          "indexed": true,
          "internalType": "address",
          "name": "creator",
          "type": "address"
        }
      ],
      "name": "ServiceRegistered",
      "type": "event"
    },
    {
      "anonymous": false,
      "inputs": [
        {
          "indexed": false,
          "internalType": "uint256",
          "name": "index",
          "type": "uint256"
        }
      ],
      "name": "ServiceRemoved",
      "type": "event"
    },
    {
      "inputs": [
        {
          "internalType": "uint256",
          "name": "index",
          "type": "uint256"
        }
      ],
      "name": "activateService",
      "outputs": [],
      "stateMutability": "nonpayable",
      "type": "function"
    },
    {
      "inputs": [
        {
          "internalType": "address",
          "name": "",
          "type": "address"
        },
        {
          "internalType": "uint256",
          "name": "",
          "type": "uint256"
        }
      ],
      "name": "creatorToServiceIds",
      "outputs": [
        {
          "internalType": "uint256",
          "name": "",
          "type": "uint256"
        }
      ],
      "stateMutability": "view",
      "type": "function"
    },
    {
      "inputs": [],
      "name": "getAllServices",
      "outputs": [
        {
          "components": [
            {
              "internalType": "string",
              "name": "name",
              "type": "string"
            },
            {
              "internalType": "string",
              "name": "description",
              "type": "string"
            },
            {
              "internalType": "bytes32",
              "name": "categoryHash",
              "type": "bytes32"
            },
            {
              "internalType": "bytes32",
              "name": "serviceTypeHash",
              "type": "bytes32"
            },
            {
              "internalType": "uint256",
              "name": "price",
              "type": "uint256"
            },
            {
              "internalType": "address",
              "name": "creator",
              "type": "address"
            },
            {
              "internalType": "bool",
              "name": "active",
              "type": "bool"
            },
            {
              "internalType": "enum ServiceManager.ProviderType",
              "name": "providerType",
              "type": "uint8"
            },
            {
              "internalType": "bool",
              "name": "busy",
              "type": "bool"
            }
          ],
          "internalType": "struct ServiceManager.Service[]",
          "name": "",
          "type": "tuple[]"
        }
      ],
      "stateMutability": "view",
      "type": "function"
    },
    {
      "inputs": [
        {
          "internalType": "uint256",
          "name": "index",
          "type": "uint256"
        }
      ],
      "name": "getService",
      "outputs": [
        {
          "components": [
            {
              "internalType": "string",
              "name": "name",
              "type": "string"
            },
            {
              "internalType": "string",
              "name": "description",
              "type": "string"
            },
            {
              "internalType": "bytes32",
              "name": "categoryHash",
              "type": "bytes32"
            },
            {
              "internalType": "bytes32",
              "name": "serviceTypeHash",
              "type": "bytes32"
            },
            {
              "internalType": "uint256",
              "name": "price",
              "type": "uint256"
            },
            {
              "internalType": "address",
              "name": "creator",
              "type": "address"
            },
            {
              "internalType": "bool",
              "name": "active",
              "type": "bool"
            },
            {
              "internalType": "enum ServiceManager.ProviderType",
              "name": "providerType",
              "type": "uint8"
            },
            {
              "internalType": "bool",
              "name": "busy",
              "type": "bool"
            }
          ],
          "internalType": "struct ServiceManager.Service",
          "name": "",
          "type": "tuple"
        }
      ],
      "stateMutability": "view",
      "type": "function"
    },
    {
      "inputs": [],
      "name": "getServiceCount",
      "outputs": [
        {
          "internalType": "uint256",
          "name": "",
          "type": "uint256"
        }
      ],
      "stateMutability": "view",
      "type": "function"
    },
    {
      "inputs": [
        {
          "internalType": "uint256",
          "name": "index",
          "type": "uint256"
        }
      ],
      "name": "getServiceMeta",
      "outputs": [
        {
          "internalType": "bytes32",
          "name": "categoryHash",
          "type": "bytes32"
        },
        {
          "internalType": "bytes32",
          "name": "serviceTypeHash",
          "type": "bytes32"
        },
        {
          "internalType": "uint256",
          "name": "price",
          "type": "uint256"
        },
        {
          "internalType": "address",
          "name": "creator",
          "type": "address"
        },
        {
          "internalType": "bool",
          "name": "active",
          "type": "bool"
        },
        {
          "internalType": "bool",
          "name": "busy",
          "type": "bool"
        }
      ],
      "stateMutability": "view",
      "type": "function"
    },
    {
      "inputs": [
        {
          "internalType": "address",
          "name": "creator",
          "type": "address"
        }
      ],
      "name": "getServicesByCreator",
      "outputs": [
        {
          "internalType": "uint256[]",
          "name": "",
          "type": "uint256[]"
        }
      ],
      "stateMutability": "view",
      "type": "function"
    },
    {
      "inputs": [],
      "name": "organization",
      "outputs": [
        {
          "internalType": "contract IServiceRegistrationReceiver",
          "name": "",
          "type": "address"
        }
      ],
      "stateMutability": "view",
      "type": "function"
    },
    {
      "inputs": [],
      "name": "organizationAddress",
      "outputs": [
        {
          "internalType": "address",
          "name": "",
          "type": "address"
        }
      ],
      "stateMutability": "view",
      "type": "function"
    },
    {
      "inputs": [
        {
          "internalType": "string",
          "name": "name",
          "type": "string"
        },
        {
          "internalType": "string",
          "name": "description",
          "type": "string"
        },
        {
          "internalType": "string",
          "name": "category",
          "type": "string"
        },
        {
          "internalType": "string",
          "name": "serviceType",
          "type": "string"
        },
        {
          "internalType": "uint256",
          "name": "price",
          "type": "uint256"
        },
        {
          "internalType": "address",
          "name": "creator",
          "type": "address"
        },
        {
          "internalType": "enum ServiceManager.ProviderType",
          "name": "providerType",
          "type": "uint8"
        }
      ],
      "name": "registerService",
      "outputs": [
        {
          "internalType": "uint256",
          "name": "",
          "type": "uint256"
        }
      ],
      "stateMutability": "nonpayable",
      "type": "function"
    },
    {
      "inputs": [
        {
          "internalType": "uint256",
          "name": "index",
          "type": "uint256"
        }
      ],
      "name": "removeService",
      "outputs": [],
      "stateMutability": "nonpayable",
      "type": "function"
    },
    {
      "inputs": [
        {
          "internalType": "uint256",
          "name": "",
          "type": "uint256"
        }
      ],
      "name": "services",
      "outputs": [
        {
          "internalType": "string",
          "name": "name",
          "type": "string"
        },
        {
          "internalType": "string",
          "name": "description",
          "type": "string"
        },
        {
          "internalType": "bytes32",
          "name": "categoryHash",
          "type": "bytes32"
        },
        {
          "internalType": "bytes32",
          "name": "serviceTypeHash",
          "type": "bytes32"
        },
        {
          "internalType": "uint256",
          "name": "price",
          "type": "uint256"
        },
        {
          "internalType": "address",
          "name": "creator",
          "type": "address"
        },
        {
          "internalType": "bool",
          "name": "active",
          "type": "bool"
        },
        {
          "internalType": "enum ServiceManager.ProviderType",
          "name": "providerType",
          "type": "uint8"
        },
        {
          "internalType": "bool",
          "name": "busy",
          "type": "bool"
        }
      ],
      "stateMutability": "view",
      "type": "function"
    },
    {
      "inputs": [
        {
          "internalType": "uint256",
          "name": "index",
          "type": "uint256"
        },
        {
          "internalType": "bool",
          "name": "isBusy",
          "type": "bool"
        }
      ],
      "name": "setBusy",
      "outputs": [],
      "stateMutability": "nonpayable",
      "type": "function"
    }
  ],
  "bytecode": "0x608034607d57601f61132e38819003918201601f19168301916001600160401b03831184841017608257808492602094604052833981010312607d57516001600160a01b03811690819003607d57600280546001600160a01b0319908116831790915560038054909116909117905560405161129590816100998239f35b600080fd5b634e487b7160e01b600052604160045260246000fdfe608080604052600436101561001357600080fd5b600090813560e01c9081630db7036814610e0b5750806321fe0f3014610d0957806323bd4d7a14610ce05780633672404e14610cc3578063530a0c9414610c0e578063722ecd6c14610b9d5780639b66b13914610a215780639ffbcb27146109ca578063a45bb9ea14610853578063bb58ac2514610793578063c22c4f43146106c5578063d37683ee1461013b5763ef0e239b146100b057600080fd5b3461013857602036600319011261013857600435906100cd611219565b5054811015610103576100eb6100e56100ff92610f65565b5061110c565b604051918291602083526020830190610e94565b0390f35b60405162461bcd60e51b815260206004820152600d60248201526c4f7574206f6620626f756e647360981b6044820152606490fd5b80fd5b50346101385760e03660031901126101385760043567ffffffffffffffff81116104a55761016d9036906004016110d2565b60243567ffffffffffffffff81116106c15761018d9036906004016110d2565b60443567ffffffffffffffff81116106bd576101ad9036906004016110d2565b94909160643567ffffffffffffffff81116106b9576101d09036906004016110d2565b9460a4359760018060a01b0389168099036106b55760c4359560038710156106b15761023d936102086102179261022f9436916111d2565b602081519101209836916111d2565b6020815191012094610227611219565b9836916111d2565b8752602087019236916111d2565b815260408501938452606085019182526080850194608435865260a081019587875260c08201936001855261027660e084019687611100565b6101008301968a88528a54600160401b81101561069d5780600161029c92018d55610f65565b949094610689575180519067ffffffffffffffff82116105b3578c82916102c38854610f9f565b601f8111610635575b50602091601f84116001146105d257926105c7575b50508160011b916000199060031b1c19161784555b60018401945194855167ffffffffffffffff81116105b3576103188254610f9f565b8d601f821161056a575b90505060208d601f83116001146104fb5790600598836104f0575b50508160011b916000199060031b1c19161790555b516002840155516003830155516004820155019360018060a01b039051166bffffffffffffffffffffffff60a01b85541617845551151583549060ff60a01b9060a01b169060ff60a01b19161783555160038110156104dc578254915161ffff60a81b1990921660a89190911b60ff60a81b161790151560b01b60ff60b01b1617905581546000198101919082116104c857808352600160205260408320805490600160401b8210156104b4579061040f91600182018155610f37565b81549060031b9084821b91600019901b191617905560405190827ffcd335a152e711f7e0e74487e27043f438dc7e73d600889758eb946a0192c3e08580a360035483906001600160a01b0316803b156104a557602483838193632a59c89760e01b83528760048401525af180156104a957610490575b602082604051908152f35b61049b83809261100c565b6104a55781610485565b5080fd5b6040513d85823e3d90fd5b634e487b7160e01b85526041600452602485fd5b634e487b7160e01b83526011600452602483fd5b634e487b7160e01b85526021600452602485fd5b01519050388061033d565b91929394959697601f198416858452828420935b818110610552575091600193918560059b9a999897969410610539575b505050811b019055610352565b015160001960f88460031b161c1916905538808061052c565b9293602060018192878601518155019501930161050f565b80846020925220601f830160051c810191602084106105a9575b601f0160051c01908e905b82811061059c5750610322565b6001918155018e9061058f565b9091508190610584565b634e487b7160e01b8d52604160045260248dfd5b0151905038806102e1565b8881528281209350601f198516905b81811061061d5750908460019594939210610604575b505050811b0184556102f6565b015160001960f88460031b161c191690553880806105f7565b929360206001819287860151815501950193016105e1565b91602091935088815220601f840160051c8101916020851061067f575b918f9291601f8695930160051c01905b81811061066f57506102cc565b9283558493508f92600101610662565b9091508190610652565b634e487b7160e01b8c5260048c905260248cfd5b634e487b7160e01b8c52604160045260248cfd5b8a80fd5b8980fd5b8780fd5b8580fd5b8380fd5b503461013857602036600319011261013857600435908054821015610138576107386106f083610f65565b506106fa8161102e565b9060ff6107096001830161102e565b600283015492600381015461074660056004840154930154936040519889986101208a526101208a0190610e30565b9088820360208a0152610e30565b9460408701526060860152608085015260018060a01b03811660a0850152818160a01c16151560c085015261078360e08501838360a81c16610e71565b60b01c1615156101008301520390f35b503461013857604036600319011261013857600435602435801515908181036106c1576002546001600160a01b03163303610824577f8709da30dfd54bd75b59fd33886fda09348096466d27d9d932066620ffa56b999161081a60209260056107fb87610f65565b5001805460ff60b01b191691151560b01b60ff60b01b16919091179055565b604051908152a280f35b60405162461bcd60e51b81526020600482015260076024820152664e6f74206f726760c81b6044820152606490fd5b50346101385760203660031901126101385760043561087482548210611196565b600561087f82610f65565b500180546001600160a01b038116330361097b5760ff8160a01c166109455762ff00ff60a01b1916600160a01b17815560035483906001600160a01b0316803b156104a557818091602460405180948193632a59c89760e01b83528960048401525af1801561093a57610921575b5050546001600160a01b0316907ffcd335a152e711f7e0e74487e27043f438dc7e73d600889758eb946a0192c3e08380a380f35b8161092b9161100c565b6109365782386108ed565b8280fd5b6040513d84823e3d90fd5b60405162461bcd60e51b815260206004820152600e60248201526d416c72656164792061637469766560901b6044820152606490fd5b60405162461bcd60e51b815260206004820152602160248201527f4f6e6c792063726561746f722063616e206163746976617465207365727669636044820152606560f81b6064820152608490fd5b5034610138576040366003190112610138576109e4610f1c565b6001600160a01b0316815260016020526040812080546024359290831015610138576020610a128484610f37565b90549060031b1c604051908152f35b503461013857602036600319011261013857600435610a4282548210611196565b6005610a4d82610f65565b500180546001600160a01b0381163303610b585760ff8160a01c1615610b215762ff00ff60a01b1916600160b01b17905560035482906001600160a01b0316803b156104a55781906024604051809481936342b2459b60e01b83528760048401525af180156104a957610aea575b5060207f419a91c001167ea76233ed548fd1a02c21b5b63f8b6eaa7dd5747aac8791489291604051908152a180f35b82610b197f419a91c001167ea76233ed548fd1a02c21b5b63f8b6eaa7dd5747aac87914892939460209361100c565b929150610abb565b60405162461bcd60e51b815260206004820152600f60248201526e105b1c9958591e481c995b5bdd9959608a1b6044820152606490fd5b60405162461bcd60e51b815260206004820152601f60248201527f4f6e6c792063726561746f722063616e2072656d6f76652073657276696365006044820152606490fd5b50346101385760203660031901126101385760c0610bbc600435610f65565b5060ff60028201549160038101549060056004820154910154916040519485526020850152604084015260018060a01b0381166060840152818160a01c161515608084015260b01c16151560a0820152f35b5034610138576020366003190112610138576001600160a01b03610c30610f1c565b168152600160205260408120604051908160208254918281520190819285526020852090855b818110610cad5750505082610c6c91038361100c565b604051928392602084019060208552518091526040840192915b818110610c94575050500390f35b8251845285945060209384019390920191600101610c86565b8254845260209093019260019283019201610c56565b503461013857806003193601126101385760209054604051908152f35b50346101385780600319360112610138576003546040516001600160a01b039091168152602090f35b5034610138578060031936011261013857805467ffffffffffffffff8111610df757604051610d3e60208360051b018261100c565b8181528280526020810191837f290decd9548b62a8d60345a988386fc84ba6bc95484008f6362f93160ef3e563845b838310610dd957868587604051928392602084019060208552518091526040840160408260051b8601019392905b828210610daa57505050500390f35b91936001919395506020610dc98192603f198a82030186528851610e94565b9601920192018594939192610d9b565b60066020600192610de98561110c565b815201920192019190610d6d565b634e487b7160e01b82526041600452602482fd5b9050346104a557816003193601126104a5576002546001600160a01b03168152602090f35b919082519283825260005b848110610e5c575050826000602080949584010152601f8019910116010190565b80602080928401015182828601015201610e3b565b906003821015610e7e5752565b634e487b7160e01b600052602160045260246000fd5b9061010080610ec3610eb185516101208652610120860190610e30565b60208601518582036020870152610e30565b9360408101516040850152606081015160608501526080810151608085015260018060a01b0360a08201511660a085015260c0810151151560c0850152610f1260e082015160e0860190610e71565b0151151591015290565b600435906001600160a01b0382168203610f3257565b600080fd5b8054821015610f4f5760005260206000200190600090565b634e487b7160e01b600052603260045260246000fd5b600054811015610f4f5760008080526006919091027f290decd9548b62a8d60345a988386fc84ba6bc95484008f6362f93160ef3e5630191565b90600182811c92168015610fcf575b6020831014610fb957565b634e487b7160e01b600052602260045260246000fd5b91607f1691610fae565b610120810190811067ffffffffffffffff821117610ff657604052565b634e487b7160e01b600052604160045260246000fd5b90601f8019910116810190811067ffffffffffffffff821117610ff657604052565b906040519182600082549261104284610f9f565b80845293600181169081156110b05750600114611069575b506110679250038361100c565b565b90506000929192526020600020906000915b818310611094575050906020611067928201013861105a565b602091935080600191548385890101520191019091849261107b565b90506020925061106794915060ff191682840152151560051b8201013861105a565b9181601f84011215610f325782359167ffffffffffffffff8311610f325760208381860195010111610f3257565b6003821015610e7e5752565b9060405161111981610fd9565b61010060ff6005839561112b8161102e565b85526111396001820161102e565b6020860152600281015460408601526003810154606086015260048101546080860152015460018060a01b03811660a0850152818160a01c16151560c085015261118b828260a81c1660e08601611100565b60b01c161515910152565b1561119d57565b60405162461bcd60e51b815260206004820152600d60248201526c092dcecc2d8d2c840d2dcc8caf609b1b6044820152606490fd5b92919267ffffffffffffffff8211610ff657604051916111fc601f8201601f19166020018461100c565b829481845281830111610f32578281602093846000960137010152565b6040519061122682610fd9565b60006101008360608152606060208201528260408201528260608201528260808201528260a08201528260c08201528260e0820152015256fea26469706673582212209461aad75d8d2a30230d0d5d8eb347ae00d48775f9306cdd84ed6ace03bee61164736f6c634300081c0033",
  "linkReferences": {},
  "deployedLinkReferences": {}
}